{
  "_format": "hh-sol-artifact-1",
  "contractName": "LiquidityAdder",
  "sourceName": "contracts/LiquidityAdder.sol",
  "abi": [
    {
      "inputs": [
        {
          "internalType": "address",
          "name": "_router",
          "type": "address"
        },
        {
          "internalType": "uint256",
          "name": "_minTokenAmount",
          "type": "uint256"
        },
        {
          "internalType": "uint256",
          "name": "_minEthAmount",
          "type": "uint256"
        },
        {
          "internalType": "uint256",
          "name": "_platformFee",
          "type": "uint256"
        },
        {
          "internalType": "address",
          "name": "_feeCollector",
          "type": "address"
        }
      ],
      "stateMutability": "nonpayable",
      "type": "constructor"
    },
    {
      "anonymous": false,
      "inputs": [
        {
          "indexed": false,
          "internalType": "address",
          "name": "token",
          "type": "address"
        },
        {
          "indexed": false,
          "internalType": "uint256",
          "name": "amount",
          "type": "uint256"
        }
      ],
      "name": "EmergencyWithdraw",
      "type": "event"
    },
    {
      "anonymous": false,
      "inputs": [
        {
          "indexed": true,
          "internalType": "address",
          "name": "newCollector",
          "type": "address"
        }
      ],
      "name": "FeeCollectorUpdated",
      "type": "event"
    },
    {
      "anonymous": false,
      "inputs": [
        {
          "indexed": true,
          "internalType": "address",
          "name": "token",
          "type": "address"
        },
        {
          "indexed": true,
          "internalType": "address",
          "name": "sender",
          "type": "address"
        },
        {
          "indexed": false,
          "internalType": "uint256",
          "name": "tokenAmount",
          "type": "uint256"
        },
        {
          "indexed": false,
          "internalType": "uint256",
          "name": "ethAmount",
          "type": "uint256"
        },
        {
          "indexed": false,
          "internalType": "uint256",
          "name": "liquidity",
          "type": "uint256"
        }
      ],
      "name": "LiquidityAdded",
      "type": "event"
    },
    {
      "anonymous": false,
      "inputs": [
        {
          "indexed": false,
          "internalType": "uint256",
          "name": "amount",
          "type": "uint256"
        }
      ],
      "name": "MinEthAmountUpdated",
      "type": "event"
    },
    {
      "anonymous": false,
      "inputs": [
        {
          "indexed": false,
          "internalType": "uint256",
          "name": "amount",
          "type": "uint256"
        }
      ],
      "name": "MinTokenAmountUpdated",
      "type": "event"
    },
    {
      "anonymous": false,
      "inputs": [
        {
          "indexed": true,
          "internalType": "address",
          "name": "previousOwner",
          "type": "address"
        },
        {
          "indexed": true,
          "internalType": "address",
          "name": "newOwner",
          "type": "address"
        }
      ],
      "name": "OwnershipTransferred",
      "type": "event"
    },
    {
      "anonymous": false,
      "inputs": [
        {
          "indexed": false,
          "internalType": "bool",
          "name": "paused",
          "type": "bool"
        }
      ],
      "name": "PausedStateUpdated",
      "type": "event"
    },
    {
      "anonymous": false,
      "inputs": [
        {
          "indexed": false,
          "internalType": "uint256",
          "name": "fee",
          "type": "uint256"
        }
      ],
      "name": "PlatformFeeUpdated",
      "type": "event"
    },
    {
      "inputs": [
        {
          "internalType": "address",
          "name": "token",
          "type": "address"
        },
        {
          "internalType": "uint256",
          "name": "tokenAmount",
          "type": "uint256"
        }
      ],
      "name": "addLiquidity",
      "outputs": [
        {
          "internalType": "uint256",
          "name": "liquidity",
          "type": "uint256"
        }
      ],
      "stateMutability": "payable",
      "type": "function"
    },
    {
      "inputs": [],
      "name": "feeCollector",
      "outputs": [
        {
          "internalType": "address",
          "name": "",
          "type": "address"
        }
      ],
      "stateMutability": "view",
      "type": "function"
    },
    {
      "inputs": [],
      "name": "minEthAmount",
      "outputs": [
        {
          "internalType": "uint256",
          "name": "",
          "type": "uint256"
        }
      ],
      "stateMutability": "view",
      "type": "function"
    },
    {
      "inputs": [],
      "name": "minTokenAmount",
      "outputs": [
        {
          "internalType": "uint256",
          "name": "",
          "type": "uint256"
        }
      ],
      "stateMutability": "view",
      "type": "function"
    },
    {
      "inputs": [],
      "name": "owner",
      "outputs": [
        {
          "internalType": "address",
          "name": "",
          "type": "address"
        }
      ],
      "stateMutability": "view",
      "type": "function"
    },
    {
      "inputs": [],
      "name": "paused",
      "outputs": [
        {
          "internalType": "bool",
          "name": "",
          "type": "bool"
        }
      ],
      "stateMutability": "view",
      "type": "function"
    },
    {
      "inputs": [],
      "name": "platformFee",
      "outputs": [
        {
          "internalType": "uint256",
          "name": "",
          "type": "uint256"
        }
      ],
      "stateMutability": "view",
      "type": "function"
    },
    {
      "inputs": [],
      "name": "renounceOwnership",
      "outputs": [],
      "stateMutability": "nonpayable",
      "type": "function"
    },
    {
      "inputs": [],
      "name": "router",
      "outputs": [
        {
          "internalType": "contract IPancakeRouter",
          "name": "",
          "type": "address"
        }
      ],
      "stateMutability": "view",
      "type": "function"
    },
    {
      "inputs": [
        {
          "internalType": "address",
          "name": "collector",
          "type": "address"
        }
      ],
      "name": "setFeeCollector",
      "outputs": [],
      "stateMutability": "nonpayable",
      "type": "function"
    },
    {
      "inputs": [
        {
          "internalType": "uint256",
          "name": "amount",
          "type": "uint256"
        }
      ],
      "name": "setMinEthAmount",
      "outputs": [],
      "stateMutability": "nonpayable",
      "type": "function"
    },
    {
      "inputs": [
        {
          "internalType": "uint256",
          "name": "amount",
          "type": "uint256"
        }
      ],
      "name": "setMinTokenAmount",
      "outputs": [],
      "stateMutability": "nonpayable",
      "type": "function"
    },
    {
      "inputs": [
        {
          "internalType": "bool",
          "name": "_paused",
          "type": "bool"
        }
      ],
      "name": "setPaused",
      "outputs": [],
      "stateMutability": "nonpayable",
      "type": "function"
    },
    {
      "inputs": [
        {
          "internalType": "uint256",
          "name": "fee",
          "type": "uint256"
        }
      ],
      "name": "setPlatformFee",
      "outputs": [],
      "stateMutability": "nonpayable",
      "type": "function"
    },
    {
      "inputs": [
        {
          "internalType": "address",
          "name": "newOwner",
          "type": "address"
        }
      ],
      "name": "transferOwnership",
      "outputs": [],
      "stateMutability": "nonpayable",
      "type": "function"
    },
    {
      "inputs": [],
      "name": "withdrawETH",
      "outputs": [],
      "stateMutability": "nonpayable",
      "type": "function"
    },
    {
      "inputs": [
        {
          "internalType": "address",
          "name": "token",
          "type": "address"
        }
      ],
      "name": "withdrawToken",
      "outputs": [],
      "stateMutability": "nonpayable",
      "type": "function"
    },
    {
      "stateMutability": "payable",
      "type": "receive"
    }
  ],
  "bytecode": "0x60a060405234620000445762000022620000186200013e565b93929092620002e2565b6040516114e76200043e82396080518181816104b60152610ca401526114e790f35b600080fd5b634e487b7160e01b600052604160045260246000fd5b90601f01601f191681019081106001600160401b038211176200008157604052565b62000049565b906200009e6200009660405190565b92836200005f565b565b6001600160a01b031690565b90565b6001600160a01b0381165b036200004457565b905051906200009e82620000af565b80620000ba565b905051906200009e82620000d1565b919060a0838203126200004457620001008184620000c2565b92620001108260208301620000d8565b92620000ac620001248460408501620000d8565b93620001348160608601620000d8565b93608001620000c2565b620001616200192580380380620001558162000087565b928339810190620000e7565b9091929394565b620000a0620000ac620000ac9290565b620000ac9062000168565b156200018b57565b60405162461bcd60e51b815260206004820152600e60248201526d24b73b30b634b2103937baba32b960911b6044820152606490fd5b15620001c957565b60405162461bcd60e51b815260206004820152601560248201527f496e76616c69642066656520636f6c6c6563746f7200000000000000000000006044820152606490fd5b620000ac620000ac620000ac9290565b156200022657565b60405162461bcd60e51b815260206004820152600c60248201526b08ccaca40e8dede40d0d2ced60a31b6044820152606490fd5b620000ac90620000a0906001600160a01b031682565b620000ac906200025a565b620000ac9062000270565b90600019905b9181191691161790565b90620002aa620000ac620002b2926200020e565b825462000286565b9055565b906001600160a01b03906200028c565b90620002da620000ac620002b2926200027b565b8254620002b6565b6200038592620003756200009e9695936200036a6200037d946200030562000399565b6200034b6200033962000319600062000178565b620000a06001600160a01b0382166001600160a01b038616141562000183565b6001600160a01b038b161415620001c1565b620003646200035b60c86200020e565b8811156200021e565b6200027b565b608052600462000296565b600562000296565b600362000296565b6002620002c6565b620000ac60016200020e565b620003a3620003b9565b6200009e620003b16200038d565b600162000296565b6200009e33620003db565b620000ac90620000a0565b620000ac9054620003c4565b620003e76000620003cf565b90620003f5816000620002c6565b6200042c620004257f8be0079c531659141344cd1fd0a4f28419497f9722a3daafe3b4186f6b6457e0936200027b565b916200027b565b916200043760405190565b600090a356fe6080604052600436101561001b575b361561001957600080fd5b005b60003560e01c806308d357c01461012b57806312e8e2c3146101265780631641f1ba1461012157806316c38b3c1461011c57806319fc5b881461011757806326232a2e14610112578063566887001461010d5780635c975abb14610108578063715018a61461010357806389476069146100fe5780638da5cb5b146100f95780639294a030146100f4578063a42dce80146100ef578063c415b95c146100ea578063e086e5ec146100e5578063f2fde38b146100e05763f887ea400361000e5761049d565b610446565b61042e565b610413565b6103d0565b6103b5565b610374565b61035c565b610330565b610302565b6102c5565b61025f565b610227565b6101de565b61019d565b610185565b610164565b805b0361013957565b600080fd5b9050359061014b82610130565b565b90602082820312610139576101619161013e565b90565b346101395761017c61017736600461014d565b6110e1565b604051005b0390f35b346101395761017c61019836600461014d565b611184565b346101395761017c6101b036600461014d565b611093565b801515610132565b9050359061014b826101b5565b9060208282031261013957610161916101bd565b346101395761017c6101f13660046101ca565b6112b7565b600091031261013957565b610161916008021c81565b906101619154610201565b6101616000600561020c565b9052565b34610139576102373660046101f6565b610181610242610217565b6040515b9182918290815260200190565b6101616000600361020c565b346101395761026f3660046101f6565b610181610242610253565b6001600160a01b031690565b6001600160a01b038116610132565b9050359061014b82610286565b919060408382031261013957610161906102bc8185610295565b9360200161013e565b6101816102426102d63660046102a2565b90610f89565b610161916008021c5b60ff1690565b9061016191546102dc565b610161600060066102eb565b34610139576103123660046101f6565b61018161031d6102f6565b6040515b91829182901515815260200190565b34610139576103403660046101f6565b61017c610530565b906020828203126101395761016191610295565b346101395761017c61036f366004610348565b611414565b34610139576103843660046101f6565b61018161038f6104ee565b604051918291826001600160a01b03909116815260200190565b6101616000600461020c565b34610139576103c53660046101f6565b6101816102426103a9565b346101395761017c6103e3366004610348565b611244565b610161916008021c6001600160a01b031690565b9061016191546103e8565b610161600060026103fc565b34610139576104233660046101f6565b61018161038f610407565b346101395761043e3660046101f6565b61017c6114a9565b346101395761017c610459366004610348565b610647565b6101619061027a906001600160a01b031682565b6101619061045e565b61016190610472565b6102239061047b565b60208101929161014b9190610484565b34610139576104ad3660046101f6565b604051806101817f00000000000000000000000000000000000000000000000000000000000000008261048d565b6101619061027a565b61016190546104db565b61016160006104e4565b61050061058c565b61014b61051e565b61027a6101616101619290565b61016190610508565b61014b61052b6000610515565b610680565b61014b6104f8565b1561053f57565b60405162461bcd60e51b815280610588600482016020808252818101527f4f776e61626c653a2063616c6c6572206973206e6f7420746865206f776e6572604082015260600190565b0390fd5b61014b6105976104ee565b6105b06105a33361027a565b916001600160a01b031690565b14610538565b61014b906105c261058c565b610622565b156105ce57565b60405162461bcd60e51b815260206004820152602660248201527f4f776e61626c653a206e6577206f776e657220697320746865207a65726f206160448201526564647265737360d01b6064820152608490fd5b61014b9061052b61063661027a6000610515565b6001600160a01b03831614156105c7565b61014b906105b6565b906001600160a01b03905b9181191691161790565b9061067561016161067c9261047b565b8254610650565b9055565b61068a60006104e4565b90610696816000610665565b6106c96106c37f8be0079c531659141344cd1fd0a4f28419497f9722a3daafe3b4186f6b6457e09361047b565b9161047b565b916106d360405190565b600090a3565b906106ec92916106e761100c565b610749565b9061014b61103e565b610161906102e5565b61016190546106f5565b1561070f57565b60405162461bcd60e51b815260206004820152601260248201527110dbdb9d1c9858dd081a5cc81c185d5cd95960721b6044820152606490fd5b90610161929161076861076361075f60066106fe565b1590565b610708565b610b3d565b1561077457565b60405162461bcd60e51b815260206004820152600d60248201526c24b73b30b634b2103a37b5b2b760991b6044820152606490fd5b6101619081565b61016190546107a9565b156107c157565b60405162461bcd60e51b8152602060048201526014602482015273546f6b656e20616d6f756e7420746f6f206c6f7760601b6044820152606490fd5b1561080457565b60405162461bcd60e51b815260206004820152601260248201527145544820616d6f756e7420746f6f206c6f7760701b6044820152606490fd5b634e487b7160e01b600052604160045260246000fd5b90601f01601f1916810190811067ffffffffffffffff82111761087657604052565b61083e565b9050519061014b82610130565b90602082820312610139576101619161087b565b6040513d6000823e3d90fd5b156108af57565b60405162461bcd60e51b8152602060048201526016602482015275496e73756666696369656e7420616c6c6f77616e636560501b6044820152606490fd5b634e487b7160e01b600052601160045260246000fd5b8181029291811591840414171561091657565b6108ed565b6101616101616101619290565b634e487b7160e01b600052601260045260246000fd5b8115610948570490565b610928565b9050519061014b826101b5565b90602082820312610139576101619161094d565b6001600160a01b0391821681529116602082015260608101929161014b9160400152565b0152565b1561099d57565b60405162461bcd60e51b8152602060048201526015602482015274151bdad95b881d1c985b9cd9995c8819985a5b1959605a1b6044820152606490fd5b6001600160a01b03909116815260408101929161014b9160200152565b156109fe57565b60405162461bcd60e51b8152602060048201526014602482015273151bdad95b88185c1c1c9bdd994819985a5b195960621b6044820152606490fd5b9190820391821161091657565b909160608284031261013957610161610a60848461087b565b93610a6e816020860161087b565b9360400161087b565b6102239061091b565b9194610ace61099292989795610ac460a096610aba61014b9a610ab360c08a019e60008b01906001600160a01b03169052565b6020890152565b6040870190610a77565b6060850190610a77565b6001600160a01b03166080830152565b15610ae557565b60405162461bcd60e51b8152602060048201526013602482015272151bdad95b881c99599d5b990819985a5b1959606a1b6044820152606490fd5b90815260608101939261014b929091604091610992906020830152565b5060009190610b62610b5161027a85610515565b6001600160a01b038316141561076d565b610b7a610b7261016160046107b0565b8310156107ba565b3490610b94610b8c61016160056107b0565b8310156107fd565b610b9d8161047b565b91610ba78361047b565b9463dd62ed3e913393610bb93061047b565b93610bcd610bc660405190565b9160e01b90565b81526001600160a01b038681166004830152851660248201526020816044818c5afa8015610e1257610c09918591610f5b575b508811156108a8565b610c30610c1f610c1960036107b0565b84610903565b610c2a61271061091b565b9061093e565b90610c3a8461091b565b8211610f2b575b6020610c636323b872dd610c6f8b610c5860405190565b998a94859460e01b90565b84528b6004850161096e565b0381878d5af1948515610e1257610ceb95610c91918691610f0d575b50610996565b63095ea7b3906020898b610cdf88610cc87f000000000000000000000000000000000000000000000000000000000000000061047b565b96610cd260405190565b9b8c958694859360e01b90565b835289600484016109da565b03925af1918215610e1257610d0b6060938b988891610eef575b506109f7565b610d3b63f305d719610d1d8688610a3a565b90610d46428c8b80610d2e60405190565b9e8f9a8b998a9860e01b90565b885260048801610a80565b03925af1978815610e125783978495859a610eb0575b5090610d6a89879493610a3a565b90610d748661091b565b8211610e20575b5050610d8a90610d8f93610a3a565b610a3a565b610d988261091b565b8111610de8575b5050610dcb7f4a1a2a6176e9646d9e3157f7c2ab3c499f18337c0b0828cfb28e0a61de4a11f79261047b565b93610de286610dd960405190565b93849384610b20565b0390a390565b81808092610dfd610df88861047b565b61047b565b828215610e17575bf115610e12573880610d9f565b61089c565b506108fc610e05565b610e54935090602091610e488763a9059cbb610e3b60405190565b9788958694859360e01b90565b83528d600484016109da565b03925af1908115610e1257610d8f93610e79610d8a9388958891610e82575b50610ade565b93819250610d7b565b610ea3915060203d8111610ea9575b610e9b8183610854565b81019061095a565b38610e73565b503d610e91565b90929550610d6a9950610edb91985060603d8111610ee8575b610ed38183610854565b810190610a47565b9998919895929095610d5c565b503d610ec9565b610f07915060203d8111610ea957610e9b8183610854565b38610d05565b610f25915060203d8111610ea957610e9b8183610854565b38610c8b565b8380808085610f40610df8610df860026104e4565b828215610f52575bf1610c415761089c565b506108fc610f48565b610f7c915060203d8111610f82575b610f748183610854565b810190610888565b38610c00565b503d610f6a565b610161919060006106d9565b610161600261091b565b15610fa657565b60405162461bcd60e51b815260206004820152601f60248201527f5265656e7472616e637947756172643a207265656e7472616e742063616c6c006044820152606490fd5b906000199061065b565b9061100561016161067c9261091b565b8254610feb565b61014b61101960016107b0565b61102d611024610f95565b91821415610f9f565b6001610ff5565b610161600161091b565b61014b61102d611034565b61014b9061105561058c565b611060816004610ff5565b61108e7fb3cb233a56504ca61a34fead4845fc7b0fd54754a80ad7c3e035575156adbf7a9161024660405190565b0390a1565b61014b90611049565b61014b906110a861058c565b6110b3816005610ff5565b61108e7fa0c3a1f930473e12e9dacecc53a58e9b4ecde168e8e20d86cd8dd6849536af549161024660405190565b61014b9061109c565b61014b906110f661058c565b611136565b1561110257565b60405162461bcd60e51b815260206004820152600c60248201526b08ccaca40e8dede40d0d2ced60a31b6044820152606490fd5b61114b61114360c861091b565b8211156110fb565b611156816003610ff5565b61108e7f45610d581145924dd7090a5017e5f2b1d6f42213bb2e95707ff86846bbfcb1ca9161024660405190565b61014b906110ea565b61014b9061119961058c565b6111de565b156111a557565b60405162461bcd60e51b815260206004820152601160248201527024b73b30b634b21031b7b63632b1ba37b960791b6044820152606490fd5b6111ff6111ee61027a6000610515565b6001600160a01b038316141561119e565b61120a816002610665565b6112347fe5693914d19c789bdee50a362998c0bc8d035a835f9871da5d51152f0582c34f9161047b565b9061123e60405190565b600090a2565b61014b9061118d565b61014b9061125961058c565b61127e565b9060ff9061065b565b9061127761016161067c92151590565b825461125e565b611289816006611267565b61108e7f1579d0414ecf0f91129961a2a51f34bb3f5c7aec687892732b9fe0dcd8d3fce39161032160405190565b61014b9061124d565b61014b906112cc61058c565b6112d8610df88261047b565b6370a082319060206113046112ec3061047b565b9361131b6112f960405190565b958693849360e01b90565b83526001600160a01b031660048301526024820190565b0381845afa918215610e12576000926113f4575b50600061133b8161091b565b8311611348575b50505050565b6020839263a9059cbb906113788461135e6104ee565b9361138361136b60405190565b9889968795869460e01b90565b8452600484016109da565b03925af1908115610e1257506113d8575b507f5fafa99d0643513820be26656b45130b01e1c03062e1266bf36f88cbd3bd9695916113cc6113c360405190565b928392836109da565b0390a138808080611342565b6113ef9060203d8111610ea957610e9b8183610854565b611394565b61140d91925060203d8111610f8257610f748183610854565b903861132f565b61014b906112c0565b61142561058c565b61014b6114313061047b565b31600061143d8161091b565b8211611447575050565b808080808561145a610df8610df86104ee565b8282156114a0575bf115610e125761147190610515565b907f5fafa99d0643513820be26656b45130b01e1c03062e1266bf36f88cbd3bd96959161108e6113c360405190565b506108fc611462565b61014b61141d56fea264697066735822122053cd617a757ff0f9e7e21fb876e0cfbba358420bb741edb379cfa5df2c2a259564736f6c63430008140033",
  "linkReferences": {},
  "deployedLinkReferences": {}
}