{
  "_format": "hh-sol-artifact-1",
  "contractName": "MemeToken",
  "sourceName": "contracts/MemeToken.sol",
  "abi": [
    {
      "inputs": [
        {
          "internalType": "string",
          "name": "name_",
          "type": "string"
        },
        {
          "internalType": "string",
          "name": "symbol_",
          "type": "string"
        },
        {
          "internalType": "uint256",
          "name": "totalSupply_",
          "type": "uint256"
        },
        {
          "internalType": "address",
          "name": "_pancakeSwapRouter",
          "type": "address"
        }
      ],
      "stateMutability": "nonpayable",
      "type": "constructor"
    },
    {
      "anonymous": false,
      "inputs": [
        {
          "indexed": true,
          "internalType": "address",
          "name": "owner",
          "type": "address"
        },
        {
          "indexed": true,
          "internalType": "address",
          "name": "spender",
          "type": "address"
        },
        {
          "indexed": false,
          "internalType": "uint256",
          "name": "value",
          "type": "uint256"
        }
      ],
      "name": "Approval",
      "type": "event"
    },
    {
      "anonymous": false,
      "inputs": [
        {
          "indexed": false,
          "internalType": "uint256",
          "name": "amount",
          "type": "uint256"
        }
      ],
      "name": "AutoBurnExecuted",
      "type": "event"
    },
    {
      "anonymous": false,
      "inputs": [
        {
          "indexed": false,
          "internalType": "bool",
          "name": "enabled",
          "type": "bool"
        }
      ],
      "name": "AutoBurnToggled",
      "type": "event"
    },
    {
      "anonymous": false,
      "inputs": [
        {
          "indexed": false,
          "internalType": "uint256",
          "name": "until",
          "type": "uint256"
        }
      ],
      "name": "LPLocked",
      "type": "event"
    },
    {
      "anonymous": false,
      "inputs": [
        {
          "indexed": false,
          "internalType": "uint256",
          "name": "amount",
          "type": "uint256"
        },
        {
          "indexed": false,
          "internalType": "uint256",
          "name": "ethReceived",
          "type": "uint256"
        }
      ],
      "name": "LPSold",
      "type": "event"
    },
    {
      "anonymous": false,
      "inputs": [
        {
          "indexed": true,
          "internalType": "address",
          "name": "oldWallet",
          "type": "address"
        },
        {
          "indexed": true,
          "internalType": "address",
          "name": "newWallet",
          "type": "address"
        }
      ],
      "name": "LiquidityWalletUpdated",
      "type": "event"
    },
    {
      "anonymous": false,
      "inputs": [
        {
          "indexed": true,
          "internalType": "address",
          "name": "oldWallet",
          "type": "address"
        },
        {
          "indexed": true,
          "internalType": "address",
          "name": "newWallet",
          "type": "address"
        }
      ],
      "name": "MarketingWalletUpdated",
      "type": "event"
    },
    {
      "anonymous": false,
      "inputs": [
        {
          "indexed": false,
          "internalType": "string",
          "name": "newURI",
          "type": "string"
        }
      ],
      "name": "MetadataUpdated",
      "type": "event"
    },
    {
      "anonymous": false,
      "inputs": [
        {
          "indexed": false,
          "internalType": "bool",
          "name": "enabled",
          "type": "bool"
        }
      ],
      "name": "SwapAndLiquifyEnabledUpdated",
      "type": "event"
    },
    {
      "anonymous": false,
      "inputs": [
        {
          "indexed": false,
          "internalType": "uint256",
          "name": "marketingTax",
          "type": "uint256"
        },
        {
          "indexed": false,
          "internalType": "uint256",
          "name": "liquidityTax",
          "type": "uint256"
        }
      ],
      "name": "TaxesUpdated",
      "type": "event"
    },
    {
      "anonymous": false,
      "inputs": [
        {
          "indexed": false,
          "internalType": "string",
          "name": "name",
          "type": "string"
        },
        {
          "indexed": false,
          "internalType": "string",
          "name": "symbol",
          "type": "string"
        },
        {
          "indexed": false,
          "internalType": "address",
          "name": "creator",
          "type": "address"
        }
      ],
      "name": "TokenCreated",
      "type": "event"
    },
    {
      "anonymous": false,
      "inputs": [
        {
          "indexed": true,
          "internalType": "address",
          "name": "from",
          "type": "address"
        },
        {
          "indexed": false,
          "internalType": "uint256",
          "name": "amount",
          "type": "uint256"
        }
      ],
      "name": "TokensBurned",
      "type": "event"
    },
    {
      "anonymous": false,
      "inputs": [
        {
          "indexed": false,
          "internalType": "uint256",
          "name": "tokensSwapped",
          "type": "uint256"
        },
        {
          "indexed": false,
          "internalType": "uint256",
          "name": "ethReceived",
          "type": "uint256"
        },
        {
          "indexed": false,
          "internalType": "uint256",
          "name": "tokensIntoLiquidity",
          "type": "uint256"
        }
      ],
      "name": "TokensSwappedAndLiquified",
      "type": "event"
    },
    {
      "anonymous": false,
      "inputs": [
        {
          "indexed": true,
          "internalType": "address",
          "name": "from",
          "type": "address"
        },
        {
          "indexed": true,
          "internalType": "address",
          "name": "to",
          "type": "address"
        },
        {
          "indexed": false,
          "internalType": "uint256",
          "name": "value",
          "type": "uint256"
        }
      ],
      "name": "Transfer",
      "type": "event"
    },
    {
      "anonymous": false,
      "inputs": [
        {
          "indexed": true,
          "internalType": "address",
          "name": "previousOwner",
          "type": "address"
        },
        {
          "indexed": true,
          "internalType": "address",
          "name": "newOwner",
          "type": "address"
        }
      ],
      "name": "TransferOwnership",
      "type": "event"
    },
    {
      "inputs": [
        {
          "internalType": "address",
          "name": "owner",
          "type": "address"
        },
        {
          "internalType": "address",
          "name": "spender",
          "type": "address"
        }
      ],
      "name": "allowance",
      "outputs": [
        {
          "internalType": "uint256",
          "name": "",
          "type": "uint256"
        }
      ],
      "stateMutability": "view",
      "type": "function"
    },
    {
      "inputs": [
        {
          "internalType": "address",
          "name": "spender",
          "type": "address"
        },
        {
          "internalType": "uint256",
          "name": "amount",
          "type": "uint256"
        }
      ],
      "name": "approve",
      "outputs": [
        {
          "internalType": "bool",
          "name": "",
          "type": "bool"
        }
      ],
      "stateMutability": "nonpayable",
      "type": "function"
    },
    {
      "inputs": [],
      "name": "autoBurnEnabled",
      "outputs": [
        {
          "internalType": "bool",
          "name": "",
          "type": "bool"
        }
      ],
      "stateMutability": "view",
      "type": "function"
    },
    {
      "inputs": [
        {
          "internalType": "address",
          "name": "account",
          "type": "address"
        }
      ],
      "name": "balanceOf",
      "outputs": [
        {
          "internalType": "uint256",
          "name": "",
          "type": "uint256"
        }
      ],
      "stateMutability": "view",
      "type": "function"
    },
    {
      "inputs": [
        {
          "internalType": "uint256",
          "name": "amount",
          "type": "uint256"
        }
      ],
      "name": "burn",
      "outputs": [],
      "stateMutability": "nonpayable",
      "type": "function"
    },
    {
      "inputs": [
        {
          "internalType": "address",
          "name": "account",
          "type": "address"
        },
        {
          "internalType": "uint256",
          "name": "amount",
          "type": "uint256"
        }
      ],
      "name": "burnFrom",
      "outputs": [],
      "stateMutability": "nonpayable",
      "type": "function"
    },
    {
      "inputs": [],
      "name": "config",
      "outputs": [
        {
          "internalType": "uint8",
          "name": "decimals",
          "type": "uint8"
        },
        {
          "internalType": "string",
          "name": "metadataURI",
          "type": "string"
        },
        {
          "internalType": "address",
          "name": "marketingWallet",
          "type": "address"
        },
        {
          "internalType": "address",
          "name": "liquidityWallet",
          "type": "address"
        },
        {
          "internalType": "address",
          "name": "platformWallet",
          "type": "address"
        },
        {
          "internalType": "uint256",
          "name": "marketingTax",
          "type": "uint256"
        },
        {
          "internalType": "uint256",
          "name": "liquidityTax",
          "type": "uint256"
        },
        {
          "internalType": "uint256",
          "name": "platformCommission",
          "type": "uint256"
        },
        {
          "internalType": "bool",
          "name": "autoBurnEnabled",
          "type": "bool"
        },
        {
          "internalType": "uint256",
          "name": "autoBurnThreshold",
          "type": "uint256"
        },
        {
          "internalType": "uint256",
          "name": "minTokensBeforeSwap",
          "type": "uint256"
        }
      ],
      "stateMutability": "view",
      "type": "function"
    },
    {
      "inputs": [],
      "name": "decimals",
      "outputs": [
        {
          "internalType": "uint8",
          "name": "",
          "type": "uint8"
        }
      ],
      "stateMutability": "view",
      "type": "function"
    },
    {
      "inputs": [
        {
          "internalType": "address",
          "name": "spender",
          "type": "address"
        },
        {
          "internalType": "uint256",
          "name": "subtractedValue",
          "type": "uint256"
        }
      ],
      "name": "decreaseAllowance",
      "outputs": [
        {
          "internalType": "bool",
          "name": "",
          "type": "bool"
        }
      ],
      "stateMutability": "nonpayable",
      "type": "function"
    },
    {
      "inputs": [
        {
          "internalType": "address",
          "name": "account",
          "type": "address"
        },
        {
          "internalType": "bool",
          "name": "excluded",
          "type": "bool"
        }
      ],
      "name": "excludeFromTax",
      "outputs": [],
      "stateMutability": "nonpayable",
      "type": "function"
    },
    {
      "inputs": [],
      "name": "factory",
      "outputs": [
        {
          "internalType": "address",
          "name": "",
          "type": "address"
        }
      ],
      "stateMutability": "view",
      "type": "function"
    },
    {
      "inputs": [
        {
          "internalType": "address",
          "name": "spender",
          "type": "address"
        },
        {
          "internalType": "uint256",
          "name": "addedValue",
          "type": "uint256"
        }
      ],
      "name": "increaseAllowance",
      "outputs": [
        {
          "internalType": "bool",
          "name": "",
          "type": "bool"
        }
      ],
      "stateMutability": "nonpayable",
      "type": "function"
    },
    {
      "inputs": [
        {
          "internalType": "string",
          "name": "name_",
          "type": "string"
        },
        {
          "internalType": "string",
          "name": "symbol_",
          "type": "string"
        },
        {
          "internalType": "uint256",
          "name": "initialSupply",
          "type": "uint256"
        },
        {
          "internalType": "uint8",
          "name": "decimals_",
          "type": "uint8"
        },
        {
          "internalType": "address",
          "name": "owner_",
          "type": "address"
        },
        {
          "internalType": "string",
          "name": "metadataURI_",
          "type": "string"
        },
        {
          "internalType": "address",
          "name": "_marketingWallet",
          "type": "address"
        },
        {
          "internalType": "address",
          "name": "_liquidityWallet",
          "type": "address"
        },
        {
          "internalType": "address",
          "name": "_platformWallet",
          "type": "address"
        },
        {
          "internalType": "uint256",
          "name": "_marketingTax",
          "type": "uint256"
        },
        {
          "internalType": "uint256",
          "name": "_liquidityTax",
          "type": "uint256"
        },
        {
          "internalType": "bool",
          "name": "_autoBurnEnabled",
          "type": "bool"
        },
        {
          "internalType": "address",
          "name": "_pancakeRouter",
          "type": "address"
        }
      ],
      "name": "initialize",
      "outputs": [],
      "stateMutability": "nonpayable",
      "type": "function"
    },
    {
      "inputs": [
        {
          "internalType": "address",
          "name": "account",
          "type": "address"
        }
      ],
      "name": "isExcludedFromFees",
      "outputs": [
        {
          "internalType": "bool",
          "name": "",
          "type": "bool"
        }
      ],
      "stateMutability": "view",
      "type": "function"
    },
    {
      "inputs": [
        {
          "internalType": "address",
          "name": "",
          "type": "address"
        }
      ],
      "name": "isExcludedFromTax",
      "outputs": [
        {
          "internalType": "bool",
          "name": "",
          "type": "bool"
        }
      ],
      "stateMutability": "view",
      "type": "function"
    },
    {
      "inputs": [],
      "name": "launchTime",
      "outputs": [
        {
          "internalType": "uint256",
          "name": "",
          "type": "uint256"
        }
      ],
      "stateMutability": "view",
      "type": "function"
    },
    {
      "inputs": [],
      "name": "liquidityTax",
      "outputs": [
        {
          "internalType": "uint256",
          "name": "",
          "type": "uint256"
        }
      ],
      "stateMutability": "view",
      "type": "function"
    },
    {
      "inputs": [],
      "name": "liquidityWallet",
      "outputs": [
        {
          "internalType": "address",
          "name": "",
          "type": "address"
        }
      ],
      "stateMutability": "view",
      "type": "function"
    },
    {
      "inputs": [
        {
          "internalType": "uint256",
          "name": "_lockTime",
          "type": "uint256"
        }
      ],
      "name": "lockLP",
      "outputs": [],
      "stateMutability": "nonpayable",
      "type": "function"
    },
    {
      "inputs": [],
      "name": "lpLockTime",
      "outputs": [
        {
          "internalType": "uint256",
          "name": "",
          "type": "uint256"
        }
      ],
      "stateMutability": "view",
      "type": "function"
    },
    {
      "inputs": [],
      "name": "lpLocked",
      "outputs": [
        {
          "internalType": "bool",
          "name": "",
          "type": "bool"
        }
      ],
      "stateMutability": "view",
      "type": "function"
    },
    {
      "inputs": [],
      "name": "marketingTax",
      "outputs": [
        {
          "internalType": "uint256",
          "name": "",
          "type": "uint256"
        }
      ],
      "stateMutability": "view",
      "type": "function"
    },
    {
      "inputs": [],
      "name": "marketingWallet",
      "outputs": [
        {
          "internalType": "address",
          "name": "",
          "type": "address"
        }
      ],
      "stateMutability": "view",
      "type": "function"
    },
    {
      "inputs": [],
      "name": "metadataURI",
      "outputs": [
        {
          "internalType": "string",
          "name": "",
          "type": "string"
        }
      ],
      "stateMutability": "view",
      "type": "function"
    },
    {
      "inputs": [],
      "name": "name",
      "outputs": [
        {
          "internalType": "string",
          "name": "",
          "type": "string"
        }
      ],
      "stateMutability": "view",
      "type": "function"
    },
    {
      "inputs": [],
      "name": "owner",
      "outputs": [
        {
          "internalType": "address",
          "name": "",
          "type": "address"
        }
      ],
      "stateMutability": "view",
      "type": "function"
    },
    {
      "inputs": [],
      "name": "pairAddress",
      "outputs": [
        {
          "internalType": "address",
          "name": "",
          "type": "address"
        }
      ],
      "stateMutability": "view",
      "type": "function"
    },
    {
      "inputs": [],
      "name": "pancakePair",
      "outputs": [
        {
          "internalType": "address",
          "name": "",
          "type": "address"
        }
      ],
      "stateMutability": "view",
      "type": "function"
    },
    {
      "inputs": [],
      "name": "pancakeRouter",
      "outputs": [
        {
          "internalType": "contract IPancakeRouter",
          "name": "",
          "type": "address"
        }
      ],
      "stateMutability": "view",
      "type": "function"
    },
    {
      "inputs": [],
      "name": "platformWallet",
      "outputs": [
        {
          "internalType": "address",
          "name": "",
          "type": "address"
        }
      ],
      "stateMutability": "view",
      "type": "function"
    },
    {
      "inputs": [
        {
          "internalType": "address",
          "name": "lpToken",
          "type": "address"
        },
        {
          "internalType": "uint256",
          "name": "amount",
          "type": "uint256"
        },
        {
          "internalType": "uint256",
          "name": "minEthAmount",
          "type": "uint256"
        }
      ],
      "name": "sellLP",
      "outputs": [],
      "stateMutability": "nonpayable",
      "type": "function"
    },
    {
      "inputs": [
        {
          "internalType": "bool",
          "name": "enabled",
          "type": "bool"
        }
      ],
      "name": "setAutoBurnEnabled",
      "outputs": [],
      "stateMutability": "nonpayable",
      "type": "function"
    },
    {
      "inputs": [
        {
          "internalType": "uint256",
          "name": "threshold",
          "type": "uint256"
        }
      ],
      "name": "setAutoBurnThreshold",
      "outputs": [],
      "stateMutability": "nonpayable",
      "type": "function"
    },
    {
      "inputs": [
        {
          "internalType": "address",
          "name": "newWallet",
          "type": "address"
        }
      ],
      "name": "setLiquidityWallet",
      "outputs": [],
      "stateMutability": "nonpayable",
      "type": "function"
    },
    {
      "inputs": [
        {
          "internalType": "address",
          "name": "newWallet",
          "type": "address"
        }
      ],
      "name": "setMarketingWallet",
      "outputs": [],
      "stateMutability": "nonpayable",
      "type": "function"
    },
    {
      "inputs": [
        {
          "internalType": "uint256",
          "name": "amount",
          "type": "uint256"
        }
      ],
      "name": "setMinTokensBeforeSwap",
      "outputs": [],
      "stateMutability": "nonpayable",
      "type": "function"
    },
    {
      "inputs": [
        {
          "internalType": "bool",
          "name": "enabled",
          "type": "bool"
        }
      ],
      "name": "setSwapAndLiquifyEnabled",
      "outputs": [],
      "stateMutability": "nonpayable",
      "type": "function"
    },
    {
      "inputs": [
        {
          "internalType": "uint256",
          "name": "_marketingTax",
          "type": "uint256"
        },
        {
          "internalType": "uint256",
          "name": "_liquidityTax",
          "type": "uint256"
        }
      ],
      "name": "setTaxes",
      "outputs": [],
      "stateMutability": "nonpayable",
      "type": "function"
    },
    {
      "inputs": [],
      "name": "swapAndLiquifyEnabled",
      "outputs": [
        {
          "internalType": "bool",
          "name": "",
          "type": "bool"
        }
      ],
      "stateMutability": "view",
      "type": "function"
    },
    {
      "inputs": [],
      "name": "symbol",
      "outputs": [
        {
          "internalType": "string",
          "name": "",
          "type": "string"
        }
      ],
      "stateMutability": "view",
      "type": "function"
    },
    {
      "inputs": [],
      "name": "totalBurned",
      "outputs": [
        {
          "internalType": "uint256",
          "name": "",
          "type": "uint256"
        }
      ],
      "stateMutability": "view",
      "type": "function"
    },
    {
      "inputs": [],
      "name": "totalSupply",
      "outputs": [
        {
          "internalType": "uint256",
          "name": "",
          "type": "uint256"
        }
      ],
      "stateMutability": "view",
      "type": "function"
    },
    {
      "inputs": [
        {
          "internalType": "address",
          "name": "to",
          "type": "address"
        },
        {
          "internalType": "uint256",
          "name": "amount",
          "type": "uint256"
        }
      ],
      "name": "transfer",
      "outputs": [
        {
          "internalType": "bool",
          "name": "",
          "type": "bool"
        }
      ],
      "stateMutability": "nonpayable",
      "type": "function"
    },
    {
      "inputs": [
        {
          "internalType": "address",
          "name": "from",
          "type": "address"
        },
        {
          "internalType": "address",
          "name": "to",
          "type": "address"
        },
        {
          "internalType": "uint256",
          "name": "amount",
          "type": "uint256"
        }
      ],
      "name": "transferFrom",
      "outputs": [
        {
          "internalType": "bool",
          "name": "",
          "type": "bool"
        }
      ],
      "stateMutability": "nonpayable",
      "type": "function"
    },
    {
      "inputs": [
        {
          "internalType": "string",
          "name": "newURI",
          "type": "string"
        }
      ],
      "name": "updateMetadata",
      "outputs": [],
      "stateMutability": "nonpayable",
      "type": "function"
    },
    {
      "inputs": [
        {
          "internalType": "address",
          "name": "token",
          "type": "address"
        }
      ],
      "name": "withdrawStuckTokens",
      "outputs": [],
      "stateMutability": "nonpayable",
      "type": "function"
    },
    {
      "stateMutability": "payable",
      "type": "receive"
    }
  ],
  "bytecode": "0x60a0604052346200003d576200002262000018620001e2565b92919091620002ff565b6040516137976200073e82396080518161072b015261379790f35b600080fd5b634e487b7160e01b600052604160045260246000fd5b90601f01601f191681019081106001600160401b038211176200007a57604052565b62000042565b90620000976200008f60405190565b928362000058565b565b6001600160401b0381116200007a57602090601f01601f19160190565b60005b838110620000ca5750506000910152565b8181015183820152602001620000b9565b90929192620000f4620000ee8262000099565b62000080565b938185526020850190828401116200003d576200009792620000b6565b9080601f830112156200003d5781516200012e92602001620000db565b90565b805b036200003d57565b90505190620000978262000131565b6001600160a01b031690565b6001600160a01b03811662000133565b90505190620000978262000156565b6080818303126200003d5780516001600160401b0381116200003d57826200019f91830162000111565b60208201519093906001600160401b0381116200003d57620001c8846200012e92850162000111565b93620001d881604086016200013b565b9360600162000166565b6200020562003ed580380380620001f98162000080565b92833981019062000175565b90919293565b9060ff60a81b9060a81b5b9181191691161790565b90620002336200012e6200023b92151590565b82546200020b565b9055565b6200014a6200012e6200012e9290565b6200012e906200023f565b156200026257565b60405162461bcd60e51b815260206004820152601a60248201527f496e76616c69642050616e63616b655377617020726f757465720000000000006044820152606490fd5b906001600160a01b039062000216565b6200012e906200014a906001600160a01b031682565b6200012e90620002b7565b6200012e90620002cd565b90620002f76200012e6200023b92620002d8565b8254620002a7565b620000979391620003109162000380565b6200031e6001601462000220565b62000344620003326200014a60006200024f565b6001600160a01b03831614156200025a565b620003766200036e33926200035b846005620002e3565b62000368846012620002e3565b620002d8565b6015620002e3565b426080526200066a565b90620000979162000584565b634e487b7160e01b600052602260045260246000fd5b9060016002830492168015620003c5575b6020831014620003bf57565b6200038c565b91607f1691620003b3565b9160001960089290920291821b911b62000216565b6200012e6200012e6200012e9290565b91906200040a6200012e6200023b93620003e5565b908354620003d0565b6200009791600091620003f5565b8181106200042d575050565b806200043d600060019362000413565b0162000421565b9190601f81116200045457505050565b620004686200009793600052602060002090565b906020601f8401819004830193106200048c575b6020601f90910104019062000421565b90915081906200047c565b90620004a1815190565b906001600160401b0382116200007a57620004c982620004c28554620003a2565b8562000444565b602090601f831160011462000508576200023b929160009183620004fc575b5050600019600883021c1916906002021790565b015190503880620004e8565b601f198316916200051e85600052602060002090565b9260005b8181106200055f5750916002939185600196941062000545575b50505002019055565b01516000196008601f8516021c191690553880806200053c565b9193602060018192878701518155019501920162000522565b90620000979162000497565b90620005966200009792600362000578565b600462000578565b15620005a657565b60405162461bcd60e51b815260206004820152601f60248201527f45524332303a206d696e7420746f20746865207a65726f2061646472657373006044820152606490fd5b6200012e9081565b6200012e9054620005eb565b634e487b7160e01b600052601160045260246000fd5b919082018092116200062357565b620005ff565b906000199062000216565b90620006486200012e6200023b92620003e5565b825462000629565b906200065c90620002d8565b600052602052604060002090565b6000620006e5620006ca8362000680846200024f565b93620006a16001600160a01b0386166001600160a01b03841614156200059e565b620006c4620006bc88620006b66002620005f3565b62000615565b600262000634565b62000650565b620006de85620006da83620005f3565b0190565b9062000634565b6200073862000720620007197fddf252ad1be2c89b69c2b068fc378daa952ba7f163c4a11628f55a4df523b3ef93620002d8565b93620002d8565b936200072b60405190565b9182918290815260200190565b0390a356fe6080604052600436101561001b575b361561001957600080fd5b005b60003560e01c806303ee438c146102fb57806306fdde03146102f6578063095ea7b3146102f157806318160ddd146102ec5780631d2cb02d146102e757806323b872dd146102e2578063296f0a0c146102dd5780632cf5daec146102d8578063313ce567146102d357806339509351146102ce57806340519a53146102c957806342966c68146102c457806348a46473146102bf5780634a74bb02146102ba5780634fbee193146102b55780635d098b38146102b057806364edbf9d146102ab57806370a08231146102a657806375f0a874146102a1578063790ca4131461029c57806379502c551461029757806379cc6790146102925780638da5cb5b1461028d578063918b5be11461028857806395d89b41146102835780639dd255da1461027e578063a457c2d714610279578063a7b1284614610274578063a8b089821461026f578063a9059cbb1461026a578063b8c9d25c14610265578063be617fa014610260578063c015430f1461025b578063c21ebd0714610256578063c45a015514610251578063c49b9a801461024c578063c5ab3df614610247578063c647b20e14610242578063c6a306471461023d578063cb4ca63114610238578063cb96372814610233578063cf53154c1461022e578063d469801614610229578063d89135cd14610224578063dd62ed3e1461021f5763fa2af9da0361000e57610fb2565b610f96565b610f58565b610f27565b610f0c565b610ee8565b610ecd565b610e85565b610e49565b610e07565b610ce0565b610cc5565b610c92565b610c2f565b610c14565b610bf9565b610bd1565b610bb6565b610b8f565b610b51565b610b36565b610b1b565b610b03565b610a3b565b6109fe565b6109c4565b610716565b6106d7565b6106bc565b6106a4565b610663565b610648565b61062d565b6105ef565b6105d7565b6105bf565b61058f565b610560565b610547565b610503565b6104d3565b610488565b61045c565b61042d565b6103ab565b61037f565b600091031261030b57565b600080fd5b60005b8381106103235750506000910152565b8181015183820152602001610313565b61035461035d60209361036793610348815190565b80835293849260200190565b95869101610310565b601f01601f191690565b0190565b602080825261037c92910190610333565b90565b3461030b5761038f366004610300565b6103a761039a613520565b6040515b9182918261036b565b0390f35b3461030b576103bb366004610300565b6103a761039a610fe0565b6001600160a01b031690565b6001600160a01b0381165b0361030b57565b905035906103f1826103d2565b565b806103dd565b905035906103f1826103f3565b919060408382031261030b5761037c9061042081856103e4565b936020016103f9565b9052565b3461030b576103a7610449610443366004610406565b9061104f565b6040515b91829182901515815260200190565b3461030b5761046c366004610300565b6103a7610477610ff4565b6040515b9182918290815260200190565b3461030b57610498366004610300565b6103a761047761352a565b909160608284031261030b5761037c6104bc84846103e4565b936104ca81602086016103e4565b936040016103f9565b3461030b576103a76104496104e93660046104a3565b9161105a565b9060208282031261030b5761037c916103e4565b3461030b5761051b6105163660046104ef565b61333d565b604051005b909160608284031261030b5761037c61053984846103e4565b936104ca81602086016103f9565b3461030b5761051b61055a366004610520565b916118a3565b3461030b57610570366004610300565b6103a761057b6122d5565b6040519182918260ff909116815260200190565b3461030b576103a76104496105a5366004610406565b90611094565b9060208282031261030b5761037c916103f9565b3461030b5761051b6105d23660046105ab565b611666565b3461030b5761051b6105ea3660046105ab565b6134d7565b3461030b5761051b6106023660046105ab565b613494565b61037c916008021c5b60ff1690565b9061037c9154610607565b61037c60156014610616565b3461030b5761063d366004610300565b6103a7610449610621565b3461030b576103a761044961065e3660046104ef565b613548565b3461030b5761051b6106763660046104ef565b613259565b8015156103dd565b905035906103f18261067b565b9060208282031261030b5761037c91610683565b3461030b5761051b6106b7366004610690565b61342c565b3461030b576103a76104776106d23660046104ef565b610ffe565b3461030b576106e7366004610300565b6103a76106fc6009546001600160a01b031690565b604051918291826001600160a01b03909116815260200190565b3461030b57610726366004610300565b6103a77f0000000000000000000000000000000000000000000000000000000000000000610477565b61037c90610610565b61037c905461074f565b634e487b7160e01b600052602260045260246000fd5b9060016002830492168015610798575b602083101461079357565b610762565b91607f1691610788565b805460009392916107bf6107b583610778565b8085529360200190565b916001811690811561081157506001146107d857505050565b6107eb9192939450600052602060002090565b916000925b8184106107fd5750500190565b8054848401526020909301926001016107f0565b92949550505060ff1916825215156020020190565b9061037c916107a2565b634e487b7160e01b600052604160045260246000fd5b90601f01601f1916810190811067ffffffffffffffff82111761086857604052565b610830565b906103f16108879261087e60405190565b93848092610826565b0383610846565b61037c9081565b61037c905461088e565b60076108aa81610758565b916108b76001830161086d565b916108cc60028201546001600160a01b031690565b916108e160038301546001600160a01b031690565b916108f660048201546001600160a01b031690565b9161090360058301610895565b9161091060068201610895565b9161091c828001610895565b9161092960088201610758565b9161037c600a61093b60098501610895565b9301610895565b989694929b9a9997959391906101608a019060008b016109639160ff169052565b89810360208b015261097491610333565b6001600160a01b03909b1660408901526001600160a01b031660608801526001600160a01b0316608087015260a086015260c085015260e084015215156101008301526101208201526101400152565b3461030b576109d4366004610300565b6103a76109df61089f565b976109f59b999b97919796929695939560405190565b9b8c9b8c610942565b3461030b5761051b610a11366004610406565b9061134e565b61037c916008021c6103c6565b9061037c9154610a17565b61037c60006005610a24565b3461030b57610a4b366004610300565b6103a76106fc610a2f565b906103f1610a6360405190565b9283610846565b67ffffffffffffffff811161086857602090601f01601f19160190565b90826000939282370152565b90929192610aa8610aa382610a6a565b610a56565b9381855260208501908284011161030b576103f192610a87565b9080601f8301121561030b5781602061037c93359101610a93565b9060208282031261030b57813567ffffffffffffffff811161030b5761037c9201610ac2565b3461030b5761051b610b16366004610add565b613149565b3461030b57610b2b366004610300565b6103a761039a610fea565b3461030b57610b46366004610300565b6103a761044961353e565b3461030b576103a7610449610b67366004610406565b9061110d565b61037c916008021c81565b9061037c9154610b6d565b61037c60006006610b78565b3461030b57610b9f366004610300565b6103a7610477610b83565b61037c60006014610a24565b3461030b57610bc6366004610300565b6103a76106fc610baa565b3461030b576103a7610449610be7366004610406565b9061101a565b61037c60006016610a24565b3461030b57610c09366004610300565b6103a76106fc610bed565b3461030b57610c24366004610300565b6103a7610477613534565b3461030b5761051b610c423660046105ab565b613460565b61037c60006015610a24565b61037c906103c6906001600160a01b031682565b61037c90610c53565b61037c90610c67565b61042990610c70565b6020810192916103f19190610c79565b3461030b57610ca2366004610300565b6103a7610cad610c47565b60405191829182610c82565b61037c60006012610a24565b3461030b57610cd5366004610300565b6103a76106fc610cb9565b3461030b5761051b610cf3366004610690565b6133ca565b60ff81166103dd565b905035906103f182610cf8565b6101a08183031261030b57803567ffffffffffffffff811161030b5782610d36918301610ac2565b92602082013567ffffffffffffffff811161030b5783610d57918401610ac2565b92610d6581604085016103f9565b92610d738260608301610d01565b92610d8183608084016103e4565b9260a083013567ffffffffffffffff811161030b5781610da2918501610ac2565b92610db08260c083016103e4565b92610dbe8360e084016103e4565b92610dcd8161010085016103e4565b92610ddc8261012083016103f9565b9261037c610dee8461014085016103f9565b93610dfd816101608601610683565b93610180016103e4565b3461030b5761051b610e1a366004610d0e565b9b9a909a999199989298979397969496611d34565b919060408382031261030b5761037c9061042081856103f9565b3461030b5761051b610e5c366004610e2f565b906130e6565b919060408382031261030b5761037c90610e7c81856103e4565b93602001610683565b3461030b5761051b610e98366004610e62565b906134cd565b90610ea890610c70565b600052602052604060002090565b61037c90610ec8601791600092610e9e565b610616565b3461030b576103a7610449610ee33660046104ef565b610eb6565b3461030b5761051b610efb3660046104ef565b613758565b61037c60146005610616565b3461030b57610f1c366004610300565b6103a7610449610f00565b3461030b57610f37366004610300565b6103a76106fc600a546001600160a01b031690565b61037c60006013610b78565b3461030b57610f68366004610300565b6103a7610477610f4c565b919060408382031261030b5761037c90610f8d81856103e4565b936020016103e4565b3461030b576103a7610477610fac366004610f73565b9061102f565b3461030b57610fc2366004610300565b6103a76106fc600b546001600160a01b031690565b61037c9061086d565b61037c6003610fd7565b61037c6004610fd7565b61037c6002610895565b61101561037c9161100d600090565b506000610e9e565b610895565b61102a919033612400565b612400565b600190565b61037c9161104a61101592611042600090565b506001610e9e565b610e9e565b61102a91903361122e565b61102a92919061102583335b83611316565b634e487b7160e01b600052601160045260246000fd5b9190820180921161108f57565b61106c565b61102a91906110ad33926110a8838561102f565b611082565b9161122e565b156110ba57565b60405162461bcd60e51b815260206004820152602560248201527f45524332303a2064656372656173656420616c6c6f77616e63652062656c6f77604482015264207a65726f60d81b6064820152608490fd5b61102a91906110ad3392611121838561102f565b61112d828210156110b3565b0390565b6103c661037c61037c9290565b61037c90611131565b1561114e57565b60405162461bcd60e51b8152602060048201526024808201527f45524332303a20617070726f76652066726f6d20746865207a65726f206164646044820152637265737360e01b6064820152608490fd5b156111a657565b60405162461bcd60e51b815260206004820152602260248201527f45524332303a20617070726f766520746f20746865207a65726f206164647265604482015261737360f01b6064820152608490fd5b90600019905b9181191691161790565b61037c61037c61037c9290565b9061122361037c61122a92611206565b82546111f6565b9055565b61126d61125c61123e600061113e565b6103c66001600160a01b0382166001600160a01b0386161415611147565b6001600160a01b038416141561119f565b611285836112808461104a856001610e9e565b611213565b6112c56112bb6112b57f8c5be1e5ebec7d5bd14f71427d1e84f3dd0314c0f7b2291e5b200ac8c7c3b92593610c70565b93610c70565b9361047b60405190565b0390a3565b156112d157565b60405162461bcd60e51b815260206004820152601d60248201527f45524332303a20696e73756666696369656e7420616c6c6f77616e63650000006044820152606490fd5b90611321818361102f565b6000198103611331575b50505050565b611345936110ad9161112d828210156112ca565b3880808061132b565b6103f1919061135d8233611066565b61140f565b1561136957565b60405162461bcd60e51b815260206004820152602160248201527f45524332303a206275726e2066726f6d20746865207a65726f206164647265736044820152607360f81b6064820152608490fd5b156113bf57565b60405162461bcd60e51b815260206004820152602260248201527f45524332303a206275726e20616d6f756e7420657863656564732062616c616e604482015261636560f01b6064820152608490fd5b60009061146461141e8361113e565b9261143d6001600160a01b0385166001600160a01b0385161415611362565b6112808361145e876114526110158487610e9e565b61112d828210156113b8565b92610e9e565b61147c6114758461112d6002610895565b6002611213565b6112c56112bb6112b57fddf252ad1be2c89b69c2b068fc378daa952ba7f163c4a11628f55a4df523b3ef93610c70565b156114b357565b60405162461bcd60e51b81526020600482015260096024820152682737ba1037bbb732b960b91b6044820152606490fd5b6103f190611517336115116115046103c66005546001600160a01b031690565b916001600160a01b031690565b146114ac565b6115dc565b61037c9060a01c610610565b61037c905461151c565b1561153957565b60405162461bcd60e51b8152602060048201526011602482015270131408185b1c9958591e481b1bd8dad959607a1b6044820152606490fd5b1561157957565b60405162461bcd60e51b815260206004820152601560248201527404c6f636b2074696d65206d757374206265203e203605c1b6044820152606490fd5b9060ff60a01b9060a01b6111fc565b906115d561037c61122a92151590565b82546115b6565b611622611629916115fc6115f76115f36005611528565b1590565b611532565b6116106116096000611206565b8211611572565b61161c600160056115c5565b42611082565b6006611213565b6116336006610895565b6116617fd80ef11d607fbaf605d45a324f110c4619e7de6e665bbc16e05d03cae0049c209161047b60405190565b0390a1565b6103f1906114e4565b906103f19291611691336115116115046103c66005546001600160a01b031690565b611771565b1561169d57565b60405162461bcd60e51b815260206004820152601060248201526f24b73b30b634b2102628103a37b5b2b760811b6044820152606490fd5b156116dc57565b60405162461bcd60e51b815260206004820152600c60248201526b1314081a5cc81b1bd8dad95960a21b6044820152606490fd5b905051906103f18261067b565b9060208282031261030b5761037c91611710565b6001600160a01b0390911681526040810192916103f19160200152565b0152565b6040513d6000823e3d90fd5b9081526040810192916103f19160200152565b9060206117c76117c28395946117a56117956103c66016546001600160a01b031690565b6001600160a01b03831614611696565b6117b26115f36005611528565b8015611881575b6117c2906116d5565b610c70565b63a9059cbb906117fe60006117e46016546001600160a01b031690565b936118096117f160405190565b9788968795869460e01b90565b845260048401611731565b03925af1801561187c57611850575b507f25441c8878aae5a9539a7d3e52d7f3b7ad7c186c480d8af2dfa29f420e50713d9161166161184760405190565b9283928361175e565b6118709060203d8111611875575b6118688183610846565b81019061171d565b611818565b503d61185e565b611752565b506117c24261189a61189661037c6006610895565b9190565b101590506117b9565b906103f1929161166f565b156118b557565b60405162461bcd60e51b8152602060048201526013602482015272105b1c9958591e481a5b9a5d1a585b1a5e9959606a1b6044820152606490fd5b61037c600f611206565b1561190157565b60405162461bcd60e51b815260206004820152600c60248201526b0a8c2f040e8dede40d0d2ced60a31b6044820152606490fd5b1561193c57565b60405162461bcd60e51b815260206004820152600e60248201526d24b73b30b634b2103937baba32b960911b6044820152606490fd5b906001600160a01b03906111fc565b9061199161037c61122a92610c70565b8254611972565b1561199f57565b60405162461bcd60e51b815260206004820152600c60248201526b4f6e6c7920666163746f727960a01b6044820152606490fd5b60ff16604d811161108f57600a0a90565b8181029291811591840414171561108f57565b61037c610160610a56565b9060ff906111fc565b61061061037c61037c9260ff1690565b90611a2b61037c61122a92611a0b565b8254611a02565b9160001960089290920291821b911b6111fc565b9190611a5761037c61122a93611206565b908354611a32565b6103f191600091611a46565b818110611a76575050565b80611a846000600193611a5f565b01611a6b565b9190601f8111611a9957505050565b611aab6103f193600052602060002090565b906020601f840181900483019310611acd575b6020601f909101040190611a6b565b9091508190611abe565b90611ae0815190565b9067ffffffffffffffff821161086857611b0482611afe8554610778565b85611a8a565b602090601f8311600114611b3f5761122a929160009183611b34575b5050600019600883021c1916906002021790565b015190503880611b20565b601f19831691611b5485600052602060002090565b9260005b818110611b9257509160029391856001969410611b79575b50505002019055565b01516000196008601f8516021c19169055388080611b70565b91936020600181928787015181550195019201611b58565b906103f191611ad7565b90611a2b61037c61122a92151590565b6103f19190611c6a9061014090600a90611be981611be3875160ff1690565b90611a1b565b611c0160018201611bfb602088015190565b90611baa565b611c2260028201611c1c60408801516001600160a01b031690565b90611981565b611c3d60038201611c1c60608801516001600160a01b031690565b611c5860048201611c1c60808801516001600160a01b031690565b611c7060058201611c6a60a088015190565b90611213565b611c8260068201611c6a60c088015190565b611c9460078201611c6a60e088015190565b611caf60088201611ca9610100880151151590565b90611bb4565b611cc260098201611c6a61012088015190565b0192015190565b906103f191611bc4565b905051906103f1826103d2565b9060208282031261030b5761037c91611cd3565b939290611d246103f193611d16604093606089019089820360008b0152610333565b908782036020890152610333565b9401906001600160a01b03169052565b999294909a968099859d99979398611d57611d526115f36014611528565b6118ae565b611d79611d648784611082565b611d7261189661037c6118f0565b11156118fa565b600095611d858761113e565b97611da38d611d9c6001600160a01b038c16611504565b1415611935565b6012546001600160a01b0316611dc16001600160a01b038b16611504565b1461222a575b33611dda6012546001600160a01b031690565b6001600160a01b0316906001600160a01b031614611df790611998565b60019c611e058e60146115c5565b611e0e90610c70565b611e19906015611981565b611e24816005611981565b7f5c486528ec3e3f0ea91181cff8116f02bfa350e03b8b6f12e00765adbb5af85c90611e4f8a610c70565b90611e5990610c70565b91611e6360405190565b600090a360c890611388611e768b6119d3565b90611e8090611206565b90611e8a916119e4565b936101f4611e978c6119d3565b90611ea190611206565b90611eab916119e4565b95611eb46119f7565b60ff8d168b820152976020890152611ed88960408a01906001600160a01b03169052565b6001600160a01b031660608801526001600160a01b038c16608088015260a087015260c0860152611f0890611206565b60e08501521515610100840152610120830152610140820152611f2c906007611cc9565b6015546001600160a01b0316611f4190610c70565b63c45a015590611f5060405190565b60e09290921b8252816004815a93602094fa90811561187c57611f7e916117c291859161220c575b50610c70565b63c9c6539690611f8d30610c70565b96611fc06020611fa86117c26015546001600160a01b031690565b63ad5c464890611fb760405190565b93849260e01b90565b825260049082905afa92831561187c57868a9281956121e4575b50611ffd90602094959661201c611ff060405190565b9889968795869460e01b90565b84526001600160a01b0390811660048501521660248301526044820190565b03925af191821561187c578d978a958694859361204192916121b6575b506016611981565b6016546001600160a01b0316612058906014611981565b816017998161206f6012546001600160a01b031690565b612079908d610e9e565b9061208391611bb4565b61208d908b610e9e565b9061209791611bb4565b6120a19089610e9e565b906120ab91611bb4565b6120b59087610e9e565b906120bf91611bb4565b6120c99085610e9e565b906120d391611bb4565b846120e66016546001600160a01b031690565b6120f09085610e9e565b906120fa91611bb4565b8461210d6015546001600160a01b031690565b61211690610c70565b6121209085610e9e565b9061212a91611bb4565b6001600160a01b03166001600160a01b03861614159461215f94612159936121659761219c575b5050506119d3565b906119e4565b84612286565b6116617f027f63f2106ab5582d6af359845002752758db257ae044e4722a205fc10ccdaa9361219360405190565b93849384611cf4565b6121ae926121a991610e9e565b611bb4565b388080612151565b6121d7915060203d81116121dd575b6121cf8183610846565b810190611ce0565b38612039565b503d6121c5565b602094955090612203611ffd92863d81116121dd576121cf8183610846565b95945090611fda565b612224915060203d81116121dd576121cf8183610846565b38611f78565b612235336012611981565b611dc7565b1561224157565b60405162461bcd60e51b815260206004820152601f60248201527f45524332303a206d696e7420746f20746865207a65726f2061646472657373006044820152606490fd5b600061147c6122c8836122988461113e565b936122b76001600160a01b0386166001600160a01b038416141561223a565b61104a611475886110a86002610895565b611c6a8561036783610895565b61037c6007610758565b156122e657565b60405162461bcd60e51b81526020600482015260126024820152715472616e736665722066726f6d207a65726f60701b6044820152606490fd5b1561232757565b60405162461bcd60e51b815260206004820152601060248201526f5472616e7366657220746f207a65726f60801b6044820152606490fd5b1561236657565b60405162461bcd60e51b81526020600482015260146024820152735472616e7366657220616d6f756e74207a65726f60601b6044820152606490fd5b61037c9060b01c610610565b61037c90546123a2565b61037c9060a81c610610565b61037c90546123b8565b634e487b7160e01b600052601260045260246000fd5b81156123ee570490565b6123ce565b9190820391821161108f57565b91906000926124436124326124148661113e565b6103c66001600160a01b0382166001600160a01b03861614156122df565b6001600160a01b0384161415612320565b61245661244f85611206565b841161235f565b61245f30610c70565b9261246984610ffe565b6007959061247a61037c6011610895565b811015806125d9575b806125c9575b806125a2575b80612583575b612574575b506124a86115f360146123ae565b906017856124be6124b98784610e9e565b610758565b91821561255e575b5050612556575b501561254a579284926125369261253160089661252a61252361251361250d6124fb600561253c9e01610895565b61250760068d01610895565b90611082565b846119e4565b61251d6064611206565b906123e4565b80926123f3565b94836126f9565b6126f9565b01610758565b61254257565b6103f1612f41565b92506103f193506126f9565b9050386124cd565b61256d9250906124b991610e9e565b85386124c6565b61257d90612aa5565b3861249a565b5061259060068801610895565b61259c61189684611206565b11612495565b506125b86103c66016546001600160a01b031690565b6001600160a01b038516141561248f565b506125d460146123c4565b612489565b506125e76115f360146123ae565b612483565b156125f357565b60405162461bcd60e51b815260206004820152602560248201527f45524332303a207472616e736665722066726f6d20746865207a65726f206164604482015264647265737360d81b6064820152608490fd5b1561264d57565b60405162461bcd60e51b815260206004820152602360248201527f45524332303a207472616e7366657220746f20746865207a65726f206164647260448201526265737360e81b6064820152608490fd5b156126a557565b60405162461bcd60e51b815260206004820152602660248201527f45524332303a207472616e7366657220616d6f756e7420657863656564732062604482015265616c616e636560d01b6064820152608490fd5b61147c6122c883600061274061272f6127118361113e565b6103c66001600160a01b0382166001600160a01b038a1614156125ec565b6001600160a01b0384161415612646565b61104a612760886127546110158986610e9e565b61112d8282101561269e565b6112808784610e9e565b9060ff60b01b9060b01b6111fc565b9061278961037c61122a92151590565b825461276a565b6127a5906127a060016014612779565b612856565b6103f160006014612779565b61037c612710611206565b906127c9610aa383610a6a565b918252565b3d156127e8576127dd3d6127bc565b903d6000602084013e565b606090565b156127f457565b60405162461bcd60e51b815260206004820152601960248201527f4d61726b6574696e67207472616e73666572206661696c6564000000000000006044820152606490fd5b9081526060810193926103f192909160409161174e906020830152565b600c90600761287361286784610895565b61250760068401610895565b9060009161288083611206565b8114612a9e576128ed6128e684926128e16128db6128b36128ab6128a5898001610895565b8b6119e4565b61251d6127b1565b996128be8b8b6123f3565b9a6128c888611206565b811180612a79575b612a52575b50610895565b896119e4565b6123e4565b80966123f3565b946128f782611206565b811180612a2d575b6129d6575b5061290f9150611206565b8311612959575b5061292030610c70565b31906116617f1ac9e38980b46b6265a4c7b866ac59138f6ec2fcf79041bc1ad2409dce21425f9361295060405190565b93849384612839565b61296c6129666002611206565b846123e4565b9061299561297a83866123f3565b9261298430610c70565b61298f813192612be5565b316123f3565b9061299f81611206565b831190816129c4575b506129b4575b50612916565b6129bd91612e06565b38806129ae565b6129ce9150611206565b8111386129a8565b6129fd6117c26117c26002612a25966129ef8796612be5565b01546001600160a01b031690565b612a0630610c70565b31612a1060405190565b90818003925af1612a1f6127ce565b506127ed565b388181612904565b5060028301546001600160a01b0316612a4b6115046103c68561113e565b14156128ff565b612a7390612a5f30610c70565b60048b01546001600160a01b0316906126f9565b386128d5565b5060048901546001600160a01b0316612a976115046103c68b61113e565b14156128d0565b5050505050565b6103f190612790565b67ffffffffffffffff81116108685760208091020190565b906127c9610aa383612aae565b369037565b906103f1612aee612ae884612ac6565b93612aae565b601f190160208401612ad3565b634e487b7160e01b600052603260045260246000fd5b90612b1a825190565b811015612b2b576020809102010190565b612afb565b61042990611206565b90612b59612b52612b48845190565b8084529260200190565b9260200190565b9060005b818110612b6a5750505090565b909192612b90612b8960019286516001600160a01b0316815260200190565b9460200190565b929101612b5d565b90612bd361174e916103f196989795612bc6608096612bbc60a08801946000890152565b6020870190612b30565b8482036040860152612b39565b6001600160a01b039097166060830152565b612bf7612bf26002611206565b612ad8565b612c0030610c70565b90600092612c2883612c1a612c1487611206565b85612b11565b906001600160a01b03169052565b612c426020611fa86117c26015546001600160a01b031690565b825260049082905afa801561187c57612c6a918691612d4d575b50612c1a612c146001611206565b612c8981612c836117c26015546001600160a01b031690565b8561122e565b612c9e6117c26015546001600160a01b031690565b63791ac947934290823b1561030b578695612cdc612cd1938897938894612cc460405190565b9b8c998a98899760e01b90565b875260048701612b98565b03925af19182612d20575b50506103f15760405162461bcd60e51b815260206004820152600b60248201526a14ddd85c0819985a5b195960aa1b6044820152606490fd5b81612d3f92903d10612d46575b612d378183610846565b810190610300565b3880612ce7565b503d612d2d565b612d65915060203d81116121dd576121cf8183610846565b38612c5c565b905051906103f1826103f3565b909160608284031261030b5761037c612d918484612d6b565b93612d9f8160208601612d6b565b93604001612d6b565b9194612df661174e92989795612dec60a096612de26103f19a612ddb60c08a019e60008b01906001600160a01b03169052565b6020890152565b6040870190612b30565b6060850190612b30565b6001600160a01b03166080830152565b6060612e1130610c70565b612e3083612e2a6117c26015546001600160a01b031690565b8361122e565b612e456117c26015546001600160a01b031690565b600094612ea89063f305d719600a612e6481546001600160a01b031690565b612e736115046103c68c61113e565b03612f2e5750612eb3612e8e6005546001600160a01b031690565b42908a80612e9b60405190565b9b8c9a8b998a9860e01b90565b885260048801612da8565b03925af1915081612f00575b506103f15760405162461bcd60e51b8152602060048201526014602482015273105919081b1a5c5d5a591a5d1e4819985a5b195960621b6044820152606490fd5b612f209060603d8111612f27575b612f188183610846565b810190612d78565b5050612ebf565b503d612f0e565b54612eb3906001600160a01b0316612e8e565b612f4a30610c70565b612f5381610ffe565b612f6361189661037c6010610895565b1015612f6c5750565b612f7581610ffe565b90612f80828261140f565b612f98612f91836110a86013610895565b6013611213565b7f485f516dd48a32c99f7e0862da83819c909f62de9b78b7beea55e313856bcc1b612fc260405190565b838152602090a1613000612ff67ffd38818f5291bf0bb3a2a48aadc06ba8757865d1dabd804585338aab3009dcb692610c70565b9261047b60405190565b0390a2565b906103f191613026336115116115046103c66005546001600160a01b031690565b613077565b1561303257565b60405162461bcd60e51b815260206004820152601e60248201527f54617820726174652063616e6e6f7420657863656564206d6178696d756d00006044820152606490fd5b906103f19161309e6130898383611082565b61309761189661037c6118f0565b111561302b565b906130b881600660076130b286600c611213565b01611213565b7f35d461df023e70886ad5e68610133ecb7d637c2263453f6ea50daf699cb31ed49161166161184760405190565b906103f191613005565b6103f190613110336115116115046103c66005546001600160a01b031690565b61311b816008611baa565b6116617f1c306e70c05992619e2128ad1ef88df75f36c9476282e59f51401b2abaa42e4e9161039e60405190565b6103f1906130f0565b6103f190613172336115116115046103c66005546001600160a01b031690565b6131b4565b1561317e57565b60405162461bcd60e51b815260206004820152600e60248201526d125b9d985b1a59081dd85b1b195d60921b6044820152606490fd5b6000906131d76131c66103c68461113e565b6001600160a01b0383161415613177565b600991613215906131f9836131f386546001600160a01b031690565b95611981565b6132096017916121a98684610e9e565b6121a983600192610e9e565b6132486132427f8616c7a330e3cf61290821331585511f1e2778171e2b005fb5ec60cfe874dc6793610c70565b91610c70565b9161325260405190565b80806112c5565b6103f190613152565b6103f190613282336115116115046103c66005546001600160a01b031690565b600a906132a08161329a84546001600160a01b031690565b93611981565b6132d660006132ae8161113e565b906001600160a01b0382166001600160a01b03861603613328575b506001600160a01b031690565b6001600160a01b03821603613313575b6132486132427f6080503d1da552ae8eb4b7b8a20245d9fabed014180510e7d1a05ea08fdb0f3e93610c70565b61332360016121a9836017610e9e565b6132e6565b613337906121a9866017610e9e565b386132c9565b6103f190613262565b6103f190613366336115116115046103c66005546001600160a01b031690565b613391565b9060ff60a81b9060a81b6111fc565b9061338a61037c61122a92151590565b825461336b565b61339c81601461337a565b6116617f53726dfcaf90650aa7eb35524f4d3220f07413c8d6cb404cc8c18bf5591bc1599161044d60405190565b6103f190613346565b6103f1906133f3336115116115046103c66005546001600160a01b031690565b6133fe81600f611bb4565b6116617f78fc20422fbd33cc7aef5e4e1c182fdc815f20c1c15af2ff53e83c223017dbf89161044d60405190565b6103f1906133d3565b6103f190613455336115116115046103c66005546001600160a01b031690565b6103f1906010611213565b6103f190613435565b6103f190613489336115116115046103c66005546001600160a01b031690565b6103f1906011611213565b6103f190613469565b906103f1916134be336115116115046103c66005546001600160a01b031690565b906121a96103f1926017610e9e565b906103f19161349d565b336134e2828261140f565b6134f3612f91836110a86013610895565b613000612ff67ffd38818f5291bf0bb3a2a48aadc06ba8757865d1dabd804585338aab3009dcb692610c70565b61037c6008610fd7565b61037c600c610895565b61037c600d610895565b61037c600f610758565b6124b961037c91613557600090565b506017610e9e565b6103f19061357f336115116115046103c66005546001600160a01b031690565b6135e4565b1561358b57565b60405162461bcd60e51b815260206004820152601c60248201527f43616e6e6f74207769746864726177206e617469766520746f6b656e000000006044820152606490fd5b9060208282031261030b5761037c91612d6b565b6135ed30610c70565b9061360c6001600160a01b0383166001600160a01b0383161415613584565b60009061361b6103c68361113e565b6001600160a01b038216036136635750808080936136476117c26117c26005546001600160a01b031690565b90319082821561365a575bf11561187c57565b506108fc613652565b6117c261366f91610c70565b60206136906370a082316136a761368560405190565b968793849360e01b90565b83526001600160a01b031660048301526024820190565b0381845afa92831561187c578293613728575b506136c482611206565b83116136cf57505050565b60209063a9059cbb906117fe846136ee6005546001600160a01b031690565b936136fb611ff060405190565b03925af190811561187c575061370e5750565b6137259060203d8111611875576118688183610846565b50565b61374a91935060203d8111613751575b6137428183610846565b8101906135d0565b91386136ba565b503d613738565b6103f19061355f56fea264697066735822122008313463997c0903a134fad5de45ec89902c4f4bbcae6abea14044abc3d4f9af64736f6c63430008140033",
  "linkReferences": {},
  "deployedLinkReferences": {}
}