{
  "_format": "hh-sol-artifact-1",
  "contractName": "TokenFactory",
  "sourceName": "contracts/TokenFactory.sol",
  "abi": [
    {
      "inputs": [
        {
          "internalType": "address",
          "name": "_platformWallet",
          "type": "address"
        },
        {
          "internalType": "address",
          "name": "_developmentWallet",
          "type": "address"
        },
        {
          "internalType": "address",
          "name": "_marketingWallet",
          "type": "address"
        },
        {
          "internalType": "address",
          "name": "_platformCommissionWallet",
          "type": "address"
        },
        {
          "internalType": "address",
          "name": "_pancakeRouter",
          "type": "address"
        }
      ],
      "stateMutability": "nonpayable",
      "type": "constructor"
    },
    {
      "anonymous": false,
      "inputs": [
        {
          "indexed": false,
          "internalType": "uint256",
          "name": "platformShare",
          "type": "uint256"
        },
        {
          "indexed": false,
          "internalType": "uint256",
          "name": "developmentShare",
          "type": "uint256"
        },
        {
          "indexed": false,
          "internalType": "uint256",
          "name": "marketingShare",
          "type": "uint256"
        }
      ],
      "name": "FeeDistributionUpdated",
      "type": "event"
    },
    {
      "anonymous": false,
      "inputs": [
        {
          "indexed": false,
          "internalType": "uint256",
          "name": "platform",
          "type": "uint256"
        },
        {
          "indexed": false,
          "internalType": "uint256",
          "name": "development",
          "type": "uint256"
        },
        {
          "indexed": false,
          "internalType": "uint256",
          "name": "marketing",
          "type": "uint256"
        }
      ],
      "name": "FeesDistributed",
      "type": "event"
    },
    {
      "anonymous": false,
      "inputs": [
        {
          "indexed": false,
          "internalType": "string",
          "name": "tier",
          "type": "string"
        },
        {
          "indexed": false,
          "internalType": "uint256",
          "name": "fee",
          "type": "uint256"
        },
        {
          "indexed": false,
          "internalType": "uint256",
          "name": "marketingTax",
          "type": "uint256"
        },
        {
          "indexed": false,
          "internalType": "uint256",
          "name": "liquidityTax",
          "type": "uint256"
        }
      ],
      "name": "TierConfigUpdated",
      "type": "event"
    },
    {
      "anonymous": false,
      "inputs": [
        {
          "indexed": true,
          "internalType": "address",
          "name": "tokenAddress",
          "type": "address"
        },
        {
          "indexed": true,
          "internalType": "address",
          "name": "creator",
          "type": "address"
        },
        {
          "indexed": false,
          "internalType": "string",
          "name": "tier",
          "type": "string"
        },
        {
          "indexed": false,
          "internalType": "uint256",
          "name": "initialSupply",
          "type": "uint256"
        },
        {
          "indexed": false,
          "internalType": "uint256",
          "name": "marketingTax",
          "type": "uint256"
        },
        {
          "indexed": false,
          "internalType": "uint256",
          "name": "liquidityTax",
          "type": "uint256"
        },
        {
          "indexed": false,
          "internalType": "bool",
          "name": "autoBurn",
          "type": "bool"
        }
      ],
      "name": "TokenCreated",
      "type": "event"
    },
    {
      "inputs": [],
      "name": "MAX_TOTAL_TAX",
      "outputs": [
        {
          "internalType": "uint256",
          "name": "",
          "type": "uint256"
        }
      ],
      "stateMutability": "view",
      "type": "function"
    },
    {
      "inputs": [
        {
          "internalType": "uint256",
          "name": "",
          "type": "uint256"
        }
      ],
      "name": "allTokens",
      "outputs": [
        {
          "internalType": "address",
          "name": "",
          "type": "address"
        }
      ],
      "stateMutability": "view",
      "type": "function"
    },
    {
      "inputs": [
        {
          "internalType": "string",
          "name": "name",
          "type": "string"
        },
        {
          "internalType": "string",
          "name": "symbol",
          "type": "string"
        },
        {
          "internalType": "uint256",
          "name": "initialSupply",
          "type": "uint256"
        },
        {
          "internalType": "uint8",
          "name": "decimals",
          "type": "uint8"
        },
        {
          "internalType": "string",
          "name": "metadataURI",
          "type": "string"
        },
        {
          "internalType": "string",
          "name": "tier",
          "type": "string"
        },
        {
          "internalType": "uint256",
          "name": "customMarketingTax",
          "type": "uint256"
        },
        {
          "internalType": "uint256",
          "name": "customLiquidityTax",
          "type": "uint256"
        },
        {
          "internalType": "bool",
          "name": "customAutoBurn",
          "type": "bool"
        }
      ],
      "name": "createToken",
      "outputs": [
        {
          "internalType": "address",
          "name": "",
          "type": "address"
        }
      ],
      "stateMutability": "payable",
      "type": "function"
    },
    {
      "inputs": [
        {
          "internalType": "address",
          "name": "token",
          "type": "address"
        }
      ],
      "name": "emergencyWithdraw",
      "outputs": [],
      "stateMutability": "nonpayable",
      "type": "function"
    },
    {
      "inputs": [],
      "name": "feeDistribution",
      "outputs": [
        {
          "internalType": "uint256",
          "name": "platformShare",
          "type": "uint256"
        },
        {
          "internalType": "uint256",
          "name": "developmentShare",
          "type": "uint256"
        },
        {
          "internalType": "uint256",
          "name": "marketingShare",
          "type": "uint256"
        }
      ],
      "stateMutability": "view",
      "type": "function"
    },
    {
      "inputs": [],
      "name": "fees",
      "outputs": [
        {
          "internalType": "uint256",
          "name": "basicFee",
          "type": "uint256"
        },
        {
          "internalType": "uint256",
          "name": "standardFee",
          "type": "uint256"
        },
        {
          "internalType": "uint256",
          "name": "premiumFee",
          "type": "uint256"
        },
        {
          "internalType": "address",
          "name": "platformWallet",
          "type": "address"
        },
        {
          "internalType": "address",
          "name": "developmentWallet",
          "type": "address"
        },
        {
          "internalType": "address",
          "name": "marketingWallet",
          "type": "address"
        },
        {
          "internalType": "address",
          "name": "platformCommissionWallet",
          "type": "address"
        }
      ],
      "stateMutability": "view",
      "type": "function"
    },
    {
      "inputs": [],
      "name": "getAllTokens",
      "outputs": [
        {
          "internalType": "address[]",
          "name": "",
          "type": "address[]"
        }
      ],
      "stateMutability": "view",
      "type": "function"
    },
    {
      "inputs": [],
      "name": "getLiquidityLockManager",
      "outputs": [
        {
          "internalType": "address",
          "name": "",
          "type": "address"
        }
      ],
      "stateMutability": "view",
      "type": "function"
    },
    {
      "inputs": [
        {
          "internalType": "string",
          "name": "tier",
          "type": "string"
        }
      ],
      "name": "getTierConfig",
      "outputs": [
        {
          "components": [
            {
              "internalType": "uint256",
              "name": "fee",
              "type": "uint256"
            },
            {
              "internalType": "uint256",
              "name": "defaultMarketingTax",
              "type": "uint256"
            },
            {
              "internalType": "uint256",
              "name": "defaultLiquidityTax",
              "type": "uint256"
            },
            {
              "internalType": "bool",
              "name": "defaultAutoBurn",
              "type": "bool"
            },
            {
              "internalType": "uint256",
              "name": "maxTotalTax",
              "type": "uint256"
            }
          ],
          "internalType": "struct TokenFactory.TierConfig",
          "name": "",
          "type": "tuple"
        }
      ],
      "stateMutability": "view",
      "type": "function"
    },
    {
      "inputs": [
        {
          "internalType": "string",
          "name": "tier",
          "type": "string"
        }
      ],
      "name": "getTierFee",
      "outputs": [
        {
          "internalType": "uint256",
          "name": "",
          "type": "uint256"
        }
      ],
      "stateMutability": "view",
      "type": "function"
    },
    {
      "inputs": [
        {
          "internalType": "string",
          "name": "tier",
          "type": "string"
        },
        {
          "internalType": "uint256",
          "name": "customMarketingTax",
          "type": "uint256"
        },
        {
          "internalType": "uint256",
          "name": "customLiquidityTax",
          "type": "uint256"
        },
        {
          "internalType": "bool",
          "name": "customAutoBurn",
          "type": "bool"
        }
      ],
      "name": "getTierSettings",
      "outputs": [
        {
          "internalType": "uint256",
          "name": "marketingTax",
          "type": "uint256"
        },
        {
          "internalType": "uint256",
          "name": "liquidityTax",
          "type": "uint256"
        },
        {
          "internalType": "bool",
          "name": "autoBurn",
          "type": "bool"
        }
      ],
      "stateMutability": "pure",
      "type": "function"
    },
    {
      "inputs": [
        {
          "internalType": "address",
          "name": "token",
          "type": "address"
        }
      ],
      "name": "getTokenTier",
      "outputs": [
        {
          "internalType": "string",
          "name": "tier",
          "type": "string"
        },
        {
          "components": [
            {
              "internalType": "uint256",
              "name": "fee",
              "type": "uint256"
            },
            {
              "internalType": "uint256",
              "name": "defaultMarketingTax",
              "type": "uint256"
            },
            {
              "internalType": "uint256",
              "name": "defaultLiquidityTax",
              "type": "uint256"
            },
            {
              "internalType": "bool",
              "name": "defaultAutoBurn",
              "type": "bool"
            },
            {
              "internalType": "uint256",
              "name": "maxTotalTax",
              "type": "uint256"
            }
          ],
          "internalType": "struct TokenFactory.TierConfig",
          "name": "config",
          "type": "tuple"
        }
      ],
      "stateMutability": "view",
      "type": "function"
    },
    {
      "inputs": [
        {
          "internalType": "address",
          "name": "user",
          "type": "address"
        }
      ],
      "name": "getUserTokens",
      "outputs": [
        {
          "internalType": "address[]",
          "name": "",
          "type": "address[]"
        }
      ],
      "stateMutability": "view",
      "type": "function"
    },
    {
      "inputs": [],
      "name": "liquidityLockManager",
      "outputs": [
        {
          "internalType": "contract LiquidityLockManager",
          "name": "",
          "type": "address"
        }
      ],
      "stateMutability": "view",
      "type": "function"
    },
    {
      "inputs": [],
      "name": "memeTokenTemplate",
      "outputs": [
        {
          "internalType": "address",
          "name": "",
          "type": "address"
        }
      ],
      "stateMutability": "view",
      "type": "function"
    },
    {
      "inputs": [],
      "name": "owner",
      "outputs": [
        {
          "internalType": "address",
          "name": "",
          "type": "address"
        }
      ],
      "stateMutability": "view",
      "type": "function"
    },
    {
      "inputs": [],
      "name": "pancakeRouter",
      "outputs": [
        {
          "internalType": "address",
          "name": "",
          "type": "address"
        }
      ],
      "stateMutability": "view",
      "type": "function"
    },
    {
      "inputs": [],
      "name": "paused",
      "outputs": [
        {
          "internalType": "bool",
          "name": "",
          "type": "bool"
        }
      ],
      "stateMutability": "view",
      "type": "function"
    },
    {
      "inputs": [
        {
          "internalType": "address",
          "name": "_template",
          "type": "address"
        }
      ],
      "name": "setMemeTokenTemplate",
      "outputs": [],
      "stateMutability": "nonpayable",
      "type": "function"
    },
    {
      "inputs": [
        {
          "internalType": "bool",
          "name": "_paused",
          "type": "bool"
        }
      ],
      "name": "setPaused",
      "outputs": [],
      "stateMutability": "nonpayable",
      "type": "function"
    },
    {
      "inputs": [
        {
          "internalType": "string",
          "name": "",
          "type": "string"
        }
      ],
      "name": "tierConfigs",
      "outputs": [
        {
          "internalType": "uint256",
          "name": "fee",
          "type": "uint256"
        },
        {
          "internalType": "uint256",
          "name": "defaultMarketingTax",
          "type": "uint256"
        },
        {
          "internalType": "uint256",
          "name": "defaultLiquidityTax",
          "type": "uint256"
        },
        {
          "internalType": "bool",
          "name": "defaultAutoBurn",
          "type": "bool"
        },
        {
          "internalType": "uint256",
          "name": "maxTotalTax",
          "type": "uint256"
        }
      ],
      "stateMutability": "view",
      "type": "function"
    },
    {
      "inputs": [
        {
          "internalType": "address",
          "name": "",
          "type": "address"
        }
      ],
      "name": "tokenTiers",
      "outputs": [
        {
          "internalType": "string",
          "name": "",
          "type": "string"
        }
      ],
      "stateMutability": "view",
      "type": "function"
    },
    {
      "inputs": [
        {
          "internalType": "uint256",
          "name": "_platformShare",
          "type": "uint256"
        },
        {
          "internalType": "uint256",
          "name": "_developmentShare",
          "type": "uint256"
        },
        {
          "internalType": "uint256",
          "name": "_marketingShare",
          "type": "uint256"
        }
      ],
      "name": "updateFeeDistribution",
      "outputs": [],
      "stateMutability": "nonpayable",
      "type": "function"
    },
    {
      "inputs": [
        {
          "internalType": "address",
          "name": "_platformWallet",
          "type": "address"
        },
        {
          "internalType": "address",
          "name": "_developmentWallet",
          "type": "address"
        },
        {
          "internalType": "address",
          "name": "_marketingWallet",
          "type": "address"
        },
        {
          "internalType": "address",
          "name": "_platformCommissionWallet",
          "type": "address"
        }
      ],
      "name": "updateFeeWallets",
      "outputs": [],
      "stateMutability": "nonpayable",
      "type": "function"
    },
    {
      "inputs": [
        {
          "internalType": "string",
          "name": "tier",
          "type": "string"
        },
        {
          "internalType": "uint256",
          "name": "fee",
          "type": "uint256"
        },
        {
          "internalType": "uint256",
          "name": "marketingTax",
          "type": "uint256"
        },
        {
          "internalType": "uint256",
          "name": "liquidityTax",
          "type": "uint256"
        },
        {
          "internalType": "bool",
          "name": "autoBurn",
          "type": "bool"
        },
        {
          "internalType": "uint256",
          "name": "maxTotalTax",
          "type": "uint256"
        }
      ],
      "name": "updateTierConfig",
      "outputs": [],
      "stateMutability": "nonpayable",
      "type": "function"
    },
    {
      "inputs": [
        {
          "internalType": "address",
          "name": "",
          "type": "address"
        },
        {
          "internalType": "uint256",
          "name": "",
          "type": "uint256"
        }
      ],
      "name": "userTokens",
      "outputs": [
        {
          "internalType": "address",
          "name": "",
          "type": "address"
        }
      ],
      "stateMutability": "view",
      "type": "function"
    },
    {
      "inputs": [],
      "name": "withdraw",
      "outputs": [],
      "stateMutability": "nonpayable",
      "type": "function"
    },
    {
      "stateMutability": "payable",
      "type": "receive"
    }
  ],
  "bytecode": "0x6080604052346200003457620000226200001862000117565b93929092620004d6565b60405161283262000798823961283290f35b600080fd5b634e487b7160e01b600052604160045260246000fd5b90601f01601f191681019081106001600160401b038211176200007157604052565b62000039565b906200008e6200008660405190565b92836200004f565b565b6001600160a01b031690565b90565b6001600160a01b038116036200003457565b905051906200008e826200009f565b919060a0838203126200003457620000d98184620000b1565b92620000e98260208301620000b1565b926200009c620000fd8460408501620000b1565b936200010d8160608601620000b1565b93608001620000b1565b6200013a62003f88803803806200012e8162000077565b928339810190620000c0565b9091929394565b620000906200009c6200009c9290565b6200009c9062000141565b0190565b156200016857565b60405162461bcd60e51b815260206004820152600e60248201526d24b73b30b634b2103937baba32b960911b6044820152606490fd5b906001600160a01b03905b9181191691161790565b6200009c9062000090906001600160a01b031682565b6200009c90620001b3565b6200009c90620001c9565b90620001f36200009c620001fb92620001d4565b82546200019e565b9055565b6040513d6000823e3d90fd5b6200009c60e062000077565b6200009c6200009c6200009c9290565b9060001990620001a9565b90620002466200009c620001fb9262000217565b825462000227565b6200008e9190620002b99060c09060069062000274816200026d875190565b9062000232565b62000288600182016200026d602088015190565b6200029c600282016200026d604088015190565b620002c060038201620002b960608801516001600160a01b031690565b90620001df565b620002dd60048201620002b960808801516001600160a01b031690565b620002fa60058201620002b960a08801516001600160a01b031690565b019201516001600160a01b031690565b906200008e916200024e565b6200009c606062000077565b6200008e91906200026d906040906002906200033e8185875190565b62000352600182016200026d602088015190565b0192015190565b906200008e9162000322565b6200009c60a062000077565b906200015c6200038e60209364626173696360d81b815260050190565b918252565b620003ac90620003a260405190565b9182918262000371565b03902090565b6200009c9062000393565b9060ff90620001a9565b90620003da6200009c620001fb92151590565b8254620003bd565b6200008e91906200026d90608090600490620003fe8185875190565b62000412600182016200026d602088015190565b62000426600282016200026d604088015190565b62000352600382016200043c6060880151151590565b90620003c7565b906200008e91620003e2565b906200015c6200038e602093671cdd185b99185c9960c21b815260080190565b620003ac906200047e60405190565b918291826200044f565b6200009c906200046f565b906200015c6200038e602093667072656d69756d60c81b815260070190565b620003ac90620004c160405190565b9182918262000493565b6200009c90620004b2565b939091926200051b60009262000506620004f4620000908662000151565b6001600160a01b038316141562000160565b62000513336001620001df565b6003620001df565b604051610fbe81016001600160401b038111828210176200007157620005488291610fbe62002fca843990565b039083f0801562000791576200055f9083620001df565b66038d7ea4c680009066071afd498d000094660aa87bee53800094620005846200020b565b93620005909062000217565b966200059c8886880152565b620005a79062000217565b95620005b4876020870152565b620005bf9062000217565b97620005cc896040870152565b6001600160a01b031660608501526001600160a01b031660808401526001600160a01b031660a08301526001600160a01b031660c0820152620006119060046200030a565b6046600a60146200062162000316565b926200062d9062000217565b848401526200063c9062000217565b60208301526200064c9062000217565b9062000659826040830152565b6200066690600b62000359565b6200067062000365565b936200067c9083860152565b620006878262000217565b62000693816020870152565b604085015281151560608501526080840152600e92620006b384620003b2565b90620006bf9162000443565b600191600c6002620006d062000365565b92620006dc9085850152565b620006e79062000217565b93620006f4856020850152565b620006ff9062000217565b60408301528215156060830152620007179062000217565b6080820152620007278462000488565b90620007339162000443565b600f9160036200074262000365565b956200074e9084880152565b620007599062000217565b6020860152604085015215156060840152620007759062000217565b60808301526200078590620004cb565b906200008e9162000443565b620001ff56fe6080604052600436101561001b575b361561001957600080fd5b005b60003560e01c80630a0fd83c146101cb57806316c38b3c146101c65780632479b177146101c15780632a5c792a146101bc578063303609c7146101b75780633ccfd60b146101b257806347a972bc146101ad578063519dc8d2146101a8578063562e85fd146101a357806359dc5b3e1461019e5780635c975abb146101995780635df5d59e14610194578063634282af1461018f57806366dda5911461018a5780636ff1c9bc146101855780637e74422e146101805780637e90874b1461017b5780638da5cb5b146101765780639af1d35a14610171578063bd5f2b0f1461016c578063c21ebd0714610167578063c23bd5f814610162578063c292e14d1461015d578063cf8b89d214610158578063d895ed2114610153578063e610333c1461014e5763f9f411d80361000e57610f3a565b610ee0565b610dca565b610d89565b610d26565b610ce7565b610ccc565b610ca5565b610c52565b610b6c565b610b35565b610b1c565b610ad4565b610aa6565b610a19565b610985565b610958565b61090d565b61089f565b610804565b6107cf565b610793565b61076c565b610560565b6104b9565b610456565b6103f5565b634e487b7160e01b600052604160045260246000fd5b90601f01601f1916810190811067ffffffffffffffff82111761020857604052565b6101d0565b9061022161021a60405190565b92836101e6565b565b67ffffffffffffffff811161020857602090601f01601f19160190565b0190565b90826000939282370152565b9092919261026561026082610223565b61020d565b9381855260208501908284011161027f5761022192610244565b600080fd5b9080601f8301121561027f5781602061029f93359101610250565b90565b9060208282031261027f57813567ffffffffffffffff811161027f5761029f9201610284565b60005b8381106102db5750506000910152565b81810151838201526020016102cb565b610240610303926020926102fd815190565b94859290565b938491016102c8565b9052565b61032061024091602094936102eb565b918252565b61033a61033160405190565b92839283610310565b03902090565b61029f91610325565b61029f9081565b61029f9054610349565b61029f905b60ff1690565b61029f905461035a565b61037a90600e610340565b61038381610350565b9161039060018301610350565b9161039d60028201610350565b9161029f60046103af60038501610365565b9301610350565b90959492610221946103e86103f1926103e16080966103da60a088019c6000890152565b6020870152565b6040850152565b15156060830152565b0152565b3461027f5761042661041061040b3660046102a2565b61036f565b9161041d95939560405190565b958695866103b6565b0390f35b8015155b0361027f57565b905035906102218261042a565b9060208282031261027f5761029f91610435565b3461027f5761046e610469366004610442565b612436565b604051005b600091031261027f57565b600b61048981610350565b9161029f60026103af60018501610350565b9081526060810193926102219290916040916103f1905b6020830152565b3461027f576104c9366004610473565b6104266104d461047e565b6040519193915b9384938461049b565b6001600160a01b031690565b906105106105096104ff845190565b8084529260200190565b9260200190565b9060005b8181106105215750505090565b90919261054761054060019286516001600160a01b0316815260200190565b9460200190565b929101610514565b602080825261029f929101906104f0565b3461027f57610570366004610473565b61042661057b612541565b6040519182918261054f565b6001600160a01b03811661042e565b9050359061022182610587565b9060208282031261027f5761029f91610596565b61029f906104e4906001600160a01b031682565b61029f906105b7565b61029f906105cb565b906105e7906105d4565b600052602052604060002090565b634e487b7160e01b600052600060045260246000fd5b634e487b7160e01b600052602260045260246000fd5b9060016002830492168015610641575b602083101461063c57565b61060b565b91607f1691610631565b8054600093929161066861065e83610621565b8085529360200190565b91600181169081156106ba575060011461068157505050565b6106949192939450600052602060002090565b916000925b8184106106a65750500190565b805484840152602090930192600101610699565b92949550505060ff1916825215156020020190565b9061029f9161064b565b906102216106f3926106ea60405190565b938480926106cf565b03836101e6565b9060001061070b5761029f906106d9565b6105f5565b61029f906107226011916000926105dd565b6106fa565b6107486107516020936102409361073c815190565b80835293849260200190565b958691016102c8565b601f01601f191690565b602080825261029f92910190610727565b3461027f576104266107876107823660046105a3565b610710565b6040519182918261075b565b3461027f576107a3366004610473565b61046e61264b565b61029f916008021c6104e4565b9061029f91546107ab565b61029f600060026107b8565b3461027f576107df366004610473565b6104266107ea6107c3565b604051918291826001600160a01b03909116815260200190565b3461027f5761042661057b61081a3660046105a3565b61254b565b8061042e565b905035906102218261081f565b909160c08284031261027f57813567ffffffffffffffff811161027f578361085b918401610284565b926108698160208501610825565b926108778260408301610825565b9261029f6108888460608501610825565b936108968160808601610435565b9360a001610825565b3461027f5761046e6108b2366004610832565b949390939291926120cc565b80518252610221919060809081906108db60208201516020860152565b6108ea60408201516040860152565b6060818101511515908501520151910152565b60a08101929161022191906108be565b3461027f576104266109286109233660046102a2565b61259a565b604051918291826108fd565b61029f916008021c61035f565b9061029f9154610934565b61029f60006012610941565b3461027f57610968366004610473565b61042661097361094c565b60405191829182901515815260200190565b3461027f5761046e6109983660046105a3565b611e81565b9060208282031261027f5761029f91610825565b634e487b7160e01b600052603260045260246000fd5b80548210156109ea576109e1600191600052602060002090565b91020190600090565b6109b1565b600f60006109fb825490565b831015610a16575061029f91610a10916109c7565b906107b8565b80fd5b3461027f576104266107ea610a2f36600461099d565b6109ef565b60808183031261027f57803567ffffffffffffffff811161027f5782610a5b918301610284565b9261029f610a6c8460208501610825565b93610a7a8160408601610825565b93606001610435565b908152606081019392610221929091604091610a9e906104b2565b019015159052565b3461027f57610426610ac5610abc366004610a34565b92919091611a3c565b60405191939193849384610a83565b3461027f5761046e610ae73660046105a3565b6127f3565b909160608284031261027f5761029f610b058484610825565b93610b138160208601610825565b93604001610825565b3461027f5761046e610b2f366004610aec565b916121fe565b3461027f57610426610b50610b4b3660046102a2565b6119da565b6040519182918290815260200190565b61029f600060016107b8565b3461027f57610b7c366004610473565b6104266107ea610b60565b61029f906104e4565b61029f9054610b87565b6004610ba581610350565b91610bb260018301610350565b91610bbf60028201610350565b91610bcc60038301610b90565b91610bd8818001610b90565b9161029f6006610bea60058501610b90565b9301610b90565b90815260e0810197969590949093909290916020860152604085015260608401610c22916001600160a01b03169052565b6001600160a01b031660808301526001600160a01b031660a082015260c001610221916001600160a01b03169052565b3461027f57610c62366004610473565b610426610c6d610b9a565b93610c7d97959793919360405190565b97889788610bf1565b61029f61029f61029f9290565b61029f600f610c86565b61029f610c93565b3461027f57610cb5366004610473565b610426610b50610c9d565b61029f600060036107b8565b3461027f57610cdc366004610473565b6104266107ea610cc0565b3461027f57610cf7366004610473565b6104266107ea6125ee565b61029f6000806107b8565b61030c906105d4565b6020810192916102219190610d0d565b3461027f57610d36366004610473565b610426610d41610d02565b60405191829182610d16565b60808183031261027f57610d618282610596565b9261029f610d728460208501610596565b93610d808160408601610596565b93606001610596565b3461027f5761046e610d9c366004610d4d565b92919091612407565b92916020610dc26102219360c08701908782036000890152610727565b9401906108be565b3461027f57610de2610ddd3660046105a3565b6125ba565b90610426610def60405190565b92839283610da5565b60ff811661042e565b9050359061022182610df8565b90916101208284031261027f57813567ffffffffffffffff811161027f5783610e38918401610284565b92602083013567ffffffffffffffff811161027f5781610e59918501610284565b92610e678260408301610825565b92610e758360608401610e01565b92608083013567ffffffffffffffff811161027f5781610e96918501610284565b9260a081013567ffffffffffffffff811161027f5782610eb7918301610284565b9261029f610ec88460c08501610825565b93610ed68160e08601610825565b9361010001610435565b6104266107ea610ef1366004610e0e565b9796909695919594929461194c565b919060408382031261027f5761029f90610f1a8185610596565b93602001610825565b610f316010916000926105dd565b906109fb825490565b3461027f576104266107ea610f50366004610f00565b90610f23565b15610f5d57565b60405162461bcd60e51b815260206004820152601260248201527110dbdb9d1c9858dd081a5cc81c185d5cd95960721b6044820152606490fd5b9061029f999897969594939291610fbd610fb8610fb46012610365565b1590565b610f56565b6115c8565b15610fc957565b60405162461bcd60e51b8152602060048201526013602482015272092dcecc2d8d2c840dcc2daca40d8cadccee8d606b1b6044820152606490fd5b1561100b57565b60405162461bcd60e51b8152602060048201526015602482015274092dcecc2d8d2c840e6f2dac4ded840d8cadccee8d605b1b6044820152606490fd5b634e487b7160e01b600052601160045260246000fd5b60ff16604d811161106f57600a0a90565b611048565b634e487b7160e01b600052601260045260246000fd5b90611094565b9190565b90811561109f570490565b611074565b156110ab57565b60405162461bcd60e51b815260206004820152600e60248201526d496e76616c696420737570706c7960901b6044820152606490fd5b61035f61029f61029f9290565b156110f557565b60405162461bcd60e51b815260206004820152600f60248201526e4d617820313820646563696d616c7360881b6044820152606490fd5b61029f60a061020d565b906102216111a2600461114761112c565b9461115861115482610350565b8752565b61116e61116760018301610350565b6020880152565b61118461117d60028301610350565b6040880152565b61119c61119360038301610365565b15156060880152565b01610350565b6080840152565b61029f90611136565b156111b957565b6040515b62461bcd60e51b815260206004820152600c60248201526b24b73b30b634b2103a34b2b960a11b6044820152606490fd5b156111f557565b60405162461bcd60e51b815260206004820152601060248201526f496e73756666696369656e742066656560801b6044820152606490fd5b9190820180921161106f57565b1561124157565b60405162461bcd60e51b815260206004820152600c60248201526b0a8c2f040e8dede40d0d2ced60a31b6044820152606490fd5b6104e461029f61029f9290565b61029f90611275565b1561129257565b60405162461bcd60e51b815260206004820152601060248201526f15195b5c1b185d19481b9bdd081cd95d60821b6044820152606490fd5b9a98969d9c9b99979594929391906101a08c018c80820390600001526112ef91610727565b8b810360208d015261130091610727565b9260408b0161130d919052565b60ff1660608a01526001600160a01b0316608089015287810360a089015261133491610727565b6001600160a01b0390991660c08701526001600160a01b031660e08601526001600160a01b0316610100850152610120840152610140830152151561016082015261018001610221916001600160a01b03169052565b6040513d6000823e3d90fd5b916001600160a01b0360089290920291821b911b5b9181191691161790565b91906113c661029f6113ce936105d4565b908354611396565b9055565b908154916801000000000000000083101561020857826113fa916001610221950181556109c7565b906113b5565b9160001960089290920291821b911b6113ab565b919061142561029f6113ce93610c86565b908354611400565b61022191600091611414565b818110611444575050565b80611452600060019361142d565b01611439565b9190601f811161146757505050565b61147961022193600052602060002090565b906020601f84018190048301931061149b575b6020601f909101040190611439565b909150819061148c565b906114ae815190565b9067ffffffffffffffff8211610208576114d2826114cc8554610621565b85611458565b602090601f831160011461150d576113ce929160009183611502575b5050600019600883021c1916906002021790565b0151905038806114ee565b601f1983169161152285600052602060002090565b9260005b81811061156057509160029391856001969410611547575b50505002019055565b01516000196008601f8516021c1916905538808061153e565b91936020600181928787015181550195019201611526565b90610221916114a5565b9190820391821161106f57565b90610221946115c16080949897956103e16115b9610a9e9560a088019088820360008a0152610727565b9a6020870152565b6060830152565b989294959390969198506115f96115dc8890565b80516115eb6110906000610c86565b119081611934575b50610fc2565b61161b89805161160c6110906003610c86565b1015908161191c575b50611004565b6116256000610c86565b8511806118f6575b611636906110a4565b61164e61164360126110e1565b60ff831611156110ee565b61166161165c85600e610340565b6111a9565b9161168061166d845190565b61167a6110906000610c86565b116111b2565b61169661168e61029f855190565b3410156111ee565b6116a06000610c86565b8111156118ea57975b6116b36000610c86565b8111156118de57955b6116e16116c9888b61122d565b6116da61109061029f608088015190565b111561123a565b6116eb6002610b90565b9061171c6116f96000611282565b926117156001600160a01b0385165b916001600160a01b031690565b141561128b565b84156118c9575b6117356117306002610b90565b611d30565b9a61173f8c6105d4565b996117498b6105d4565b936117546009610b90565b61175e600a610b90565b946117696003610b90565b92873b1561027f578f90968d978f93948d9561178460405190565b809d819c829c61179863c5ab3df660e01b90565b84526117a89c33946004016112ca565b03815a6000948591f1801561189d576118ab575b506117cd88600f6113d2565b6113d2565b6117df886117c861029f3360106105dd565b6117f3836117ee8a60116105dd565b611578565b6118036117fe825190565b611b8a565b61180e61029f825190565b341161185e575b50611858907f34031198f696744d6fab30deb06b83e1db66bea6116f9776b62146317b932e7a94611845336105d4565b9761184f60405190565b9586958661158f565b0390a390565b6000808080936118886118828361187c611877336105d4565b6105d4565b93015190565b34611582565b908282156118a2575bf11561189d5738611815565b61138a565b506108fc611891565b6118c39060006118bb81836101e6565b810190610473565b386117bc565b93506118d86060840151151590565b93611723565b506040820151956116bc565b506020820151976116a9565b5061163661191261029f60001961190c8561105e565b9061108a565b861115905061162d565b51905061192c611090600a610c86565b111538611615565b5190506119446110906020610c86565b1115386115f3565b61029f9897969594939291906000610f97565b9061032061026083610223565b611976600561195f565b64626173696360d81b602082015290565b61029f61196c565b611999600861195f565b671cdd185b99185c9960c21b602082015290565b61029f61198f565b6119bf600761195f565b667072656d69756d60c81b602082015290565b61029f6119b5565b6119eb6119e5611987565b82612448565b611a31576119fa6119e56119ad565b611a2657611a1090611a0a6119d2565b90612448565b611a1c576040516111bd565b61029f6006610350565b5061029f6005610350565b5061029f6004610350565b90939190611a4b6119e5611987565b611b1c57611a5a6119e56119ad565b611ad457611a6a90611a0a6119d2565b611a76576040516111bd565b600093611a8285610c86565b811115611ac357935b611a9481610c86565b8211159050611ab257925b8215611aaa57929190565b929150600190565b50611abd6003610c86565b92611a9f565b50611ace6005610c86565b93611a8b565b50600093611ae185610c86565b811115611b0b57935b611af381610c86565b8211159050611b00579190565b506110906002610c86565b50611b166003610c86565b93611aea565b509190565b61029f6064610c86565b15611b3257565b60405162461bcd60e51b815260206004820152601860248201527f496e76616c69642066656520646973747269627574696f6e00000000000000006044820152606490fd5b8181029291811591840414171561106f57565b600b9081611b9781610350565b906001810191611ba683610350565b611baf9161122d565b90600201611bbc90610350565b611bc59161122d565b611bcd611b21565b9384918214611bdb90611b2b565b611be490610350565b611bee9084611b77565b90611bf89161108a565b92611c038492610350565b611c0d9084611b77565b90611c179161108a565b918291611c2391611582565b90611c2d91611582565b91600481611c3b6007610b90565b611c44906105d4565b611c4d906105d4565b60008215600093849384938493611cf5575bf11561189d57600080808086611c7c611877611877888001610b90565b828215611cec575bf11561189d576000808086611ca26118776118776005859801610b90565b828215611ce3575bf11561189d57611cde7f312c5308f42848705a866c73dec11fd0783c2d64aac6a97e94467062ad3f4058936104db60405190565b0390a1565b506108fc611caa565b506108fc611c84565b506108fc611c5f565b61029f90611d15906001600160a01b031660601b90565b6bffffffffffffffffffffffff191690565b61029f90611cfe565b611d44603791611d3e600090565b50611d27565b604051733d602d80600a3d3981f3363d3d373d3d3d363d7360601b815260148101919091526e5af43d82803e903d91602b57fd5bf360881b60288201526000f090565b15611d8e57565b60405162461bcd60e51b815260206004820152600a60248201526927b7363c9037bbb732b960b11b6044820152606490fd5b61022190611dde33611dd86117086104e46001610b90565b14611d87565b611e55565b15611dea57565b60405162461bcd60e51b815260206004820152601860248201527f496e76616c69642074656d706c617465206164647265737300000000000000006044820152606490fd5b906001600160a01b03906113ab565b90611e4e61029f6113ce926105d4565b8254611e2f565b61022190611e7a611e696104e46000611282565b6001600160a01b0383161415611de3565b6002611e3e565b61022190611dc0565b906102219594939291611ea733611dd86117086104e46001610b90565b612014565b15611eb357565b60405162461bcd60e51b815260206004820152601060248201526f09ac2f040e8c2f040e8dede40d0d2ced60831b6044820152606490fd5b15611ef257565b60405162461bcd60e51b8152602060048201526016602482015275088caccc2ead8e840e8c2f0cae640e8dede40d0d2ced60531b6044820152606490fd5b90600019906113ab565b90611f4a61029f6113ce92610c86565b8254611f30565b9060ff906113ab565b90611f6a61029f6113ce92151590565b8254611f51565b6102219190611f8a90608090600490611f908185875190565b90611f3a565b611fa260018201611f8a602088015190565b611fb460028201611f8a604088015190565b611fce60038201611fc86060880151151590565b90611f5a565b0192015190565b9061022191611f71565b6103f16102219461200d6120056060959998969960808601908682036000880152610727565b986020850152565b6040830152565b92909361209890612088611cde949761203961203161029f610c93565b821115611eac565b61204e612046868b61122d565b821015611eeb565b61208161205961112c565b936120628a8652565b61206d8b6020870152565b612078876040870152565b15156060850152565b6080830152565b61209385600e610340565b611fd5565b7f9e3a9b505499c4b7d6541f92679c4fe984b5dd1252622313005263bc175ea305946120c360405190565b94859485611fdf565b906102219594939291611e8a565b9061022192916120f433611dd86117086104e46001610b90565b612176565b1561210057565b60405162461bcd60e51b815260206004820152600f60248201526e4d75737420746f74616c203130302560881b6044820152606490fd5b61029f606061020d565b6102219190611f8a9060409060029061215a8185875190565b611fce60018201611f8a602088015190565b9061022191612141565b6121a061218c84612187858561122d565b61122d565b61219a61109061029f611b21565b146120f9565b6121d06121ab612137565b6121b3838252565b6121be846020830152565b6121c9856040830152565b600b61216c565b611cde7fc2598ee1064d25a35cc42ae49954377c76f68eb4289b1825844a9f751bcae152936104db60405190565b9061022192916120da565b9061022193929161222433611dd86117086104e46001610b90565b612359565b1561223057565b60405162461bcd60e51b815260206004820152601760248201527f496e76616c696420706c6174666f726d2077616c6c65740000000000000000006044820152606490fd5b1561227c57565b60405162461bcd60e51b815260206004820152601a60248201527f496e76616c696420646576656c6f706d656e742077616c6c65740000000000006044820152606490fd5b156122c857565b60405162461bcd60e51b815260206004820152601860248201527f496e76616c6964206d61726b6574696e672077616c6c657400000000000000006044820152606490fd5b1561231457565b60405162461bcd60e51b815260206004820152601960248201527f496e76616c696420636f6d6d697373696f6e2077616c6c6574000000000000006044820152606490fd5b61240161022194936123f86006946123e26123d16123776000611282565b6123956001600160a01b0382166001600160a01b038a161415612229565b6123b36001600160a01b0382166001600160a01b0386161415612275565b6104e46001600160a01b0382166001600160a01b03881614156122c1565b6001600160a01b038916141561230d565b6004946123f0906007611e3e565b848001611e3e565b60058301611e3e565b01611e3e565b90610221939291612209565b6102219061242b33611dd86117086104e46001610b90565b610221906012611f5a565b61022190612413565b61029f916102eb565b6110906124af91612457600090565b5061248061246460405190565b809261247460208301918261243f565b908103825203826101e6565b61249261248b825190565b9160200190565b20926124a061246460405190565b6124ab61248b825190565b2090565b1490565b906124ce6124c26104ff845490565b92600052602060002090565b9060005b8181106124df5750505090565b90919261250c6125056001926124f487610b90565b6001600160a01b0316815260200190565b9460010190565b9291016124d2565b9061029f916124b3565b906102216106f39261252f60405190565b93848092612514565b61029f9061251e565b61029f600f612538565b61256261029f9161255a606090565b5060106105dd565b612538565b61256f61112c565b906000825260208080808086016000815201600081520160008152016000905250565b61029f612567565b61165c61029f916125a9612592565b50600e610340565b61029f906106d9565b6125da6125df916125c9606090565b506125d2612592565b5060116105dd565b6125b1565b9061029f61165c83600e610340565b61029f6118776000610b90565b61260f33611dd86117086104e46001610b90565b61022160008080806126276118776118776001610b90565b612630306105d4565b3190828215612642575bf11561189d57565b506108fc61263a565b6102216125fb565b6102219061266b33611dd86117086104e46001610b90565b6126cf565b905051906102218261081f565b9060208282031261027f5761029f91612670565b905051906102218261042a565b9060208282031261027f5761029f91612691565b6001600160a01b0390911681526040810192916102219160200152565b6118776126db916105d4565b6370a082319060206127076126ef306105d4565b9361271e6126fc60405190565b958693849360e01b90565b83526001600160a01b031660048301526024820190565b0381845afa91821561189d576000926127c3575b5060009061273f82610c86565b831161274a57505050565b60209063a9059cbb9061277b846127616001610b90565b9361278661276e60405190565b9889968795869460e01b90565b8452600484016126b2565b03925af190811561189d57506127995750565b6127b99060203d81116127bc575b6127b181836101e6565b81019061269e565b50565b503d6127a7565b6127e591925060203d81116127ec575b6127dd81836101e6565b81019061267d565b9038612732565b503d6127d3565b6102219061265356fea264697066735822122048ba5d8f113243a72ab546d4ff6cab25a0e83e03ca32967a6278ae2d052b72e564736f6c6343000814003360806040523461001a57604051610f9e6100208239610f9e90f35b600080fdfe6080604052600436101561001257600080fd5b60003560e01c80630213837c146100625780635c2814a11461005d578063be8796c114610058578063ce144e0a146100535763e88f8ebd036100675761035e565b6102d9565b61028b565b61022d565b610132565b600080fd5b6001600160a01b031690565b90565b6001600160a01b0381165b0361006757565b9050359061009a8261007b565b565b919060408382031261006757610078906100b6818561008d565b9360200161008d565b6100789061006c906001600160a01b031682565b610078906100bf565b610078906100d3565b906100ef906100dc565b600052602052604060002090565b610078916008021c81565b9061007891546100fd565b61012d610078926101286001936000946100e5565b6100e5565b610108565b346100675761015f61014e61014836600461009c565b90610113565b6040515b9182918290815260200190565b0390f35b8051825261009a9190604090819061018060208201516020860152565b01511515910152565b9061019681606093610163565b0190565b906101ba6101b36101a9845190565b8084529260200190565b9260200190565b9060005b8181106101cb5750505090565b9091926101e56101de6001928651610189565b9460200190565b9291016101be565b8051825261007891606081019160409061020c60208201516020850152565b015190604081840391015261019a565b6020808252610078929101906101ed565b346100675761015f61024961024336600461009c565b90610cea565b6040519182918261021c565b80610086565b9050359061009a82610255565b91906040838203126100675761007890610282818561008d565b9360200161025b565b34610067576102a461029e366004610268565b90610a22565b604051005b9091606082840312610067576100786102c2848461008d565b936102d0816020860161025b565b9360400161025b565b34610067576102a46102ec3660046102a9565b91610750565b90602082820312610067576100789161008d565b906103156101b36101a9845190565b9060005b8181106103265750505090565b9091926103456101de60019286516001600160a01b0316815260200190565b929101610319565b602080825261007892910190610306565b346100675761015f6103796103743660046102f2565b610f4c565b6040519182918261034d565b61006c6100786100789290565b61007890610385565b156103a257565b60405162461bcd60e51b815260206004820152601060248201526f24b73b30b634b2102628103a37b5b2b760811b6044820152606490fd5b6100786100786100789290565b156103ee57565b60405162461bcd60e51b815260206004820152601d60248201527f416d6f756e74206d7573742062652067726561746572207468616e20300000006044820152606490fd5b1561043a57565b60405162461bcd60e51b815260206004820152601760248201527f4c6f636b206475726174696f6e20746f6f2073686f72740000000000000000006044820152606490fd5b634e487b7160e01b600052604160045260246000fd5b90601f01601f1916810190811067ffffffffffffffff8211176104b757604052565b61047f565b801515610086565b9050519061009a826104bc565b9060208282031261006757610078916104c4565b6001600160a01b0391821681529116602082015260608101929161009a9160400152565b6040513d6000823e3d90fd5b1561051c57565b60405162461bcd60e51b815260206004820152600f60248201526e151c985b9cd9995c8819985a5b1959608a1b6044820152606490fd5b634e487b7160e01b600052601160045260246000fd5b9190820180921161057657565b610553565b9061009a61058860405190565b9283610495565b610078606061057b565b634e487b7160e01b600052603260045260246000fd5b80548210156105d2576105c9600391600052602060002090565b91020190600090565b610599565b634e487b7160e01b600052600060045260246000fd5b90600019905b9181191691161790565b9061060d610078610614926103da565b82546105ed565b9055565b9060ff906105f3565b9061063161007861061492151590565b8254610618565b61009a91906106749060409060029061065981610653875190565b906105fd565b61066b60018201610653602088015190565b01920151151590565b90610621565b91906106895761009a91610638565b6105d7565b90815491600160401b8310156104b757826106b191600161009a950181556105af565b9061067a565b6100789081565b61007890546106b7565b80548210156105d2576105c9600191600052602060002090565b916001600160a01b0360089290920291821b911b6105f3565b919061070c610078610614936100dc565b9083546106e2565b90815491600160401b8310156104b7578261073791600161009a950181556106c8565b906106fb565b90815260408101929161009a9160200152565b909160009061077561076461006c84610392565b6001600160a01b038516141561039b565b610788610781836103da565b85116103e7565b61079f61079762093a806103da565b821015610433565b6107a8836100dc565b926107b2846100dc565b928560206323b872dd33966107e4856107ca306100dc565b936107f06107d760405190565b9788968795869460e01b90565b84528d600485016104e5565b03925af180156109345761089361088f87610128878761012861082d8f9c6108276108999a61089d9c879e91610906575b50610515565b42610569565b9b61086d8d6108436100788961012889896100e5565b61086061084e61058f565b926108598689860152565b6020840152565b851515604083015261068e565b6106536108808761012860019e8f6100e5565b9161088a836106be565b610569565b5490565b926103da565b9190565b146108e9575b506108ce7f59d86badba9ed0836e2f7433321f97c74d9825a883e2315b54e1a86177795486926100dc565b936108e46108db60405190565b9283928361073d565b0390a3565b610900906108fb6100788560026100e5565b610714565b386108a3565b610927915060203d811161092d575b61091f8183610495565b8101906104d1565b38610821565b503d610915565b610509565b1561094057565b60405162461bcd60e51b8152602060048201526012602482015271092dcecc2d8d2c840d8dec6d640d2dcc8caf60731b6044820152606490fd5b1561098157565b60405162461bcd60e51b815260206004820152601060248201526f105b1c9958591e481d5b9b1bd8dad95960821b6044820152606490fd5b156109c057565b60405162461bcd60e51b815260206004820152601060248201526f131bd8dac81b9bdd08195e1c1a5c995960821b6044820152606490fd5b9190820391821161057657565b6001600160a01b03909116815260408101929161009a9160200152565b90600090610a2f82610392565b6001600160a01b03166001600160a01b0384161415610a4d9061039b565b610a5783836100e5565b90339182610a64916100e5565b548110610a7090610939565b81610a7b85856100e5565b90610a85916100e5565b90610a8f916105af565b509281836002860195610aa3875460ff1690565b15610aad9061097a565b42610aba600183016106be565b1115610ac5906109b9565b01610acf906106be565b948260019182610ade91610621565b610ae7916100e5565b90610af1916100e5565b84610afb826106be565b90610b05916109f8565b610b0e916105fd565b610b17906100dc565b91610b21836100dc565b9063a9059cbb91610b3160405190565b9260e01b83528280610b47888760048401610a05565b0381845a94602095f19081156109345750610b95575b506108e4610b8b7fae1e3f55a3bd49028dc8c60076591b54e799245355498a82b672a16a0561fadc926100dc565b9361015260405190565b610bac9060203d811161092d5761091f8183610495565b610b5d565b610bb961058f565b600080825260208201526060604082015290565b610078610bb1565b67ffffffffffffffff81116104b75760208091020190565b90610bff610bfa83610bd5565b61057b565b918252565b610c0c61058f565b600080825260208201819052604082015290565b610078610c04565b60005b828110610c3757505050565b602090610c42610c20565b8184015201610c2b565b9061009a610c62610c5c84610bed565b93610bd5565b601f190160208401610c28565b60001981146105765760010190565b90610c87825190565b8110156105d2576020809102010190565b9061009a610cd86002610ca961058f565b94610cba610cb6826106be565b8752565b610cd0610cc9600183016106be565b6020880152565b015460ff1690565b15156040840152565b61007890610c98565b9190610078610d0891610cfb610bcd565b50610128600095866100e5565b610d18610d13825490565b610c4c565b90610d22846103da565b9084198281815b610d34610078865490565b811015610e0257610d5a610d566002610d4d84896105af565b50015460ff1690565b1590565b610d6d575b610d6890610c6f565b610d29565b9491610db790610d86610d8088886105af565b50610ce1565b610d90858a610c7e565b52610d9b8489610c7e565b50610db18a610daa89896105af565b50016106be565b90610569565b91610dc76001610daa88886105af565b8411610de2575b610dda610d6891610c6f565b959050610d5f565b9250610d68610dda610df96001610daa89896105af565b94915050610dce565b509496925090949294610e1486610c4c565b94610e1e846103da565b875b811015610e5b57610e5481610e38610e20938c610c7e565b51610e43828b610c7e565b52610e4e818a610c7e565b50610c6f565b9050610e1e565b5061007895949750610e939396508103610e9a5750610e8c610e7c866103da565b915b610e8661058f565b96870152565b6020850152565b6040830152565b610e8c9091610e7e565b6100789061006c565b6100789054610ea4565b90610ed2610ec66101a9845490565b92600052602060002090565b9060005b818110610ee35750505090565b909192610f10610f09600192610ef887610ead565b6001600160a01b0316815260200190565b9460010190565b929101610ed6565b9061007891610eb7565b9061009a610f3c92610f3360405190565b93848092610f18565b0383610495565b61007890610f22565b610f6361007891610f5b606090565b5060026100e5565b610f4356fea264697066735822122079929615b78be888daef04635d2a9d12b25b0f67e1df583f296f5ae765b7eabe64736f6c63430008140033",
  "linkReferences": {},
  "deployedLinkReferences": {}
}